{
  "contractName": "ADS",
  "abi": [
    {
      "constant": true,
      "inputs": [
        {
          "name": "",
          "type": "address"
        },
        {
          "name": "",
          "type": "uint256"
        }
      ],
      "name": "OwnersToRoutes",
      "outputs": [
        {
          "name": "",
          "type": "uint256"
        }
      ],
      "payable": false,
      "stateMutability": "view",
      "type": "function"
    },
    {
      "constant": true,
      "inputs": [
        {
          "name": "",
          "type": "address"
        },
        {
          "name": "",
          "type": "uint256"
        }
      ],
      "name": "OwnersToPendingTransfersByRouteId",
      "outputs": [
        {
          "name": "",
          "type": "uint256"
        }
      ],
      "payable": false,
      "stateMutability": "view",
      "type": "function"
    },
    {
      "constant": true,
      "inputs": [
        {
          "name": "",
          "type": "uint256"
        }
      ],
      "name": "Routes",
      "outputs": [
        {
          "name": "name",
          "type": "string"
        },
        {
          "name": "updateRelease",
          "type": "uint256"
        },
        {
          "name": "owner",
          "type": "address"
        },
        {
          "name": "newOwner",
          "type": "address"
        },
        {
          "components": [
            {
              "name": "abiLocation",
              "type": "string"
            },
            {
              "name": "contractAddress",
              "type": "address"
            }
          ],
          "name": "current",
          "type": "tuple"
        },
        {
          "components": [
            {
              "name": "abiLocation",
              "type": "string"
            },
            {
              "name": "contractAddress",
              "type": "address"
            }
          ],
          "name": "update",
          "type": "tuple"
        },
        {
          "name": "created",
          "type": "uint256"
        },
        {
          "name": "version",
          "type": "uint256"
        },
        {
          "name": "released",
          "type": "uint256"
        }
      ],
      "payable": false,
      "stateMutability": "view",
      "type": "function"
    },
    {
      "constant": false,
      "inputs": [],
      "name": "acceptOwnership",
      "outputs": [],
      "payable": false,
      "stateMutability": "nonpayable",
      "type": "function"
    },
    {
      "constant": true,
      "inputs": [],
      "name": "owner",
      "outputs": [
        {
          "name": "",
          "type": "address"
        }
      ],
      "payable": false,
      "stateMutability": "view",
      "type": "function"
    },
    {
      "constant": true,
      "inputs": [],
      "name": "newOwner",
      "outputs": [
        {
          "name": "",
          "type": "address"
        }
      ],
      "payable": false,
      "stateMutability": "view",
      "type": "function"
    },
    {
      "constant": true,
      "inputs": [
        {
          "name": "",
          "type": "bytes32"
        }
      ],
      "name": "ContractNamesToRoutes",
      "outputs": [
        {
          "name": "",
          "type": "uint256"
        }
      ],
      "payable": false,
      "stateMutability": "view",
      "type": "function"
    },
    {
      "constant": false,
      "inputs": [
        {
          "name": "_newOwner",
          "type": "address"
        }
      ],
      "name": "transferOwnership",
      "outputs": [],
      "payable": false,
      "stateMutability": "nonpayable",
      "type": "function"
    },
    {
      "inputs": [],
      "payable": false,
      "stateMutability": "nonpayable",
      "type": "constructor"
    },
    {
      "anonymous": false,
      "inputs": [
        {
          "indexed": false,
          "name": "name",
          "type": "string"
        },
        {
          "indexed": false,
          "name": "owner",
          "type": "address"
        }
      ],
      "name": "RouteCreated",
      "type": "event"
    },
    {
      "anonymous": false,
      "inputs": [
        {
          "indexed": false,
          "name": "name",
          "type": "string"
        },
        {
          "indexed": false,
          "name": "owner",
          "type": "address"
        }
      ],
      "name": "UpdateScheduled",
      "type": "event"
    },
    {
      "anonymous": false,
      "inputs": [
        {
          "indexed": false,
          "name": "name",
          "type": "string"
        },
        {
          "indexed": false,
          "name": "owner",
          "type": "address"
        },
        {
          "indexed": false,
          "name": "newOwner",
          "type": "address"
        }
      ],
      "name": "TransferOwnership",
      "type": "event"
    },
    {
      "anonymous": false,
      "inputs": [
        {
          "indexed": false,
          "name": "name",
          "type": "string"
        },
        {
          "indexed": false,
          "name": "newOwner",
          "type": "address"
        }
      ],
      "name": "AcceptOwnership",
      "type": "event"
    },
    {
      "anonymous": false,
      "inputs": [
        {
          "indexed": false,
          "name": "from",
          "type": "address"
        },
        {
          "indexed": false,
          "name": "to",
          "type": "address"
        }
      ],
      "name": "OwnershipTransferred",
      "type": "event"
    },
    {
      "constant": true,
      "inputs": [
        {
          "name": "_id",
          "type": "uint256"
        },
        {
          "name": "_name",
          "type": "string"
        }
      ],
      "name": "Get",
      "outputs": [
        {
          "name": "name",
          "type": "string"
        },
        {
          "name": "addr",
          "type": "address"
        },
        {
          "name": "abiUrl",
          "type": "string"
        },
        {
          "name": "released",
          "type": "uint256"
        },
        {
          "name": "version",
          "type": "uint256"
        },
        {
          "name": "update",
          "type": "uint256"
        },
        {
          "name": "updateAddr",
          "type": "address"
        },
        {
          "name": "updateAbiUrl",
          "type": "string"
        },
        {
          "name": "active",
          "type": "uint256"
        },
        {
          "name": "owner",
          "type": "address"
        },
        {
          "name": "created",
          "type": "uint256"
        }
      ],
      "payable": false,
      "stateMutability": "view",
      "type": "function"
    },
    {
      "constant": true,
      "inputs": [
        {
          "name": "_owner",
          "type": "address"
        }
      ],
      "name": "GetRouteIdsForOwner",
      "outputs": [
        {
          "name": "routeIds",
          "type": "uint256[]"
        }
      ],
      "payable": false,
      "stateMutability": "view",
      "type": "function"
    },
    {
      "constant": true,
      "inputs": [
        {
          "name": "_id",
          "type": "uint256"
        },
        {
          "name": "_name",
          "type": "string"
        }
      ],
      "name": "GetAddress",
      "outputs": [
        {
          "name": "addr",
          "type": "address"
        }
      ],
      "payable": false,
      "stateMutability": "view",
      "type": "function"
    },
    {
      "constant": true,
      "inputs": [
        {
          "name": "_id",
          "type": "uint256"
        },
        {
          "name": "_name",
          "type": "string"
        }
      ],
      "name": "GetAddressAndAbi",
      "outputs": [
        {
          "name": "addr",
          "type": "address"
        },
        {
          "name": "abiUrl",
          "type": "string"
        }
      ],
      "payable": false,
      "stateMutability": "view",
      "type": "function"
    },
    {
      "constant": true,
      "inputs": [],
      "name": "RoutesLength",
      "outputs": [
        {
          "name": "length",
          "type": "uint256"
        }
      ],
      "payable": false,
      "stateMutability": "view",
      "type": "function"
    },
    {
      "constant": true,
      "inputs": [
        {
          "name": "_name",
          "type": "string"
        }
      ],
      "name": "NameTaken",
      "outputs": [
        {
          "name": "",
          "type": "bool"
        }
      ],
      "payable": false,
      "stateMutability": "view",
      "type": "function"
    },
    {
      "constant": false,
      "inputs": [
        {
          "name": "_name",
          "type": "string"
        },
        {
          "name": "_addr",
          "type": "address"
        },
        {
          "name": "_abiUrl",
          "type": "string"
        }
      ],
      "name": "Create",
      "outputs": [
        {
          "name": "id",
          "type": "uint256"
        }
      ],
      "payable": true,
      "stateMutability": "payable",
      "type": "function"
    },
    {
      "constant": false,
      "inputs": [
        {
          "name": "_id",
          "type": "uint256"
        },
        {
          "name": "_name",
          "type": "string"
        },
        {
          "name": "_release",
          "type": "uint256"
        },
        {
          "name": "_addr",
          "type": "address"
        },
        {
          "name": "_abiUrl",
          "type": "string"
        }
      ],
      "name": "ScheduleUpdate",
      "outputs": [
        {
          "name": "success",
          "type": "bool"
        }
      ],
      "payable": true,
      "stateMutability": "payable",
      "type": "function"
    },
    {
      "constant": true,
      "inputs": [
        {
          "name": "_id",
          "type": "uint256"
        },
        {
          "name": "_name",
          "type": "string"
        }
      ],
      "name": "GetPendingRouteTransfer",
      "outputs": [
        {
          "name": "addr",
          "type": "address"
        }
      ],
      "payable": false,
      "stateMutability": "view",
      "type": "function"
    },
    {
      "constant": true,
      "inputs": [],
      "name": "GetPendingTransfersForSender",
      "outputs": [
        {
          "name": "routeIds",
          "type": "uint256[]"
        }
      ],
      "payable": false,
      "stateMutability": "view",
      "type": "function"
    },
    {
      "constant": false,
      "inputs": [
        {
          "name": "_id",
          "type": "uint256"
        },
        {
          "name": "_name",
          "type": "string"
        },
        {
          "name": "_owner",
          "type": "address"
        }
      ],
      "name": "TransferRouteOwnership",
      "outputs": [
        {
          "name": "success",
          "type": "bool"
        }
      ],
      "payable": true,
      "stateMutability": "payable",
      "type": "function"
    },
    {
      "constant": false,
      "inputs": [
        {
          "name": "_id",
          "type": "uint256"
        },
        {
          "name": "_name",
          "type": "string"
        }
      ],
      "name": "AcceptRouteOwnership",
      "outputs": [
        {
          "name": "success",
          "type": "bool"
        }
      ],
      "payable": true,
      "stateMutability": "payable",
      "type": "function"
    },
    {
      "constant": true,
      "inputs": [
        {
          "name": "_option",
          "type": "uint256"
        }
      ],
      "name": "Price",
      "outputs": [
        {
          "name": "price",
          "type": "uint256"
        }
      ],
      "payable": false,
      "stateMutability": "view",
      "type": "function"
    },
    {
      "constant": false,
      "inputs": [
        {
          "name": "_amount",
          "type": "uint256"
        }
      ],
      "name": "Widthdraw",
      "outputs": [
        {
          "name": "success",
          "type": "bool"
        }
      ],
      "payable": false,
      "stateMutability": "nonpayable",
      "type": "function"
    },
    {
      "constant": true,
      "inputs": [],
      "name": "Balance",
      "outputs": [
        {
          "name": "balance",
          "type": "uint256"
        }
      ],
      "payable": false,
      "stateMutability": "view",
      "type": "function"
    }
  ],
  "bytecode": "0x60806040526000600360006101000a81548160ff0219169083151502179055503480156200002c57600080fd5b50336000806101000a81548173ffffffffffffffffffffffffffffffffffffffff021916908373ffffffffffffffffffffffffffffffffffffffff1602179055506001600261012060405190810160405280602060405190810160405280600081525081526020014281526020013073ffffffffffffffffffffffffffffffffffffffff1681526020013073ffffffffffffffffffffffffffffffffffffffff1681526020016040805190810160405280602060405190810160405280600081525081526020013073ffffffffffffffffffffffffffffffffffffffff1681525081526020016040805190810160405280602060405190810160405280600081525081526020013073ffffffffffffffffffffffffffffffffffffffff16815250815260200142815260200160008152602001428152509080600181540180825580915050906001820390600052602060002090600b0201600090919290919091506000820151816000019080519060200190620001ac9291906200073d565b506020820151816001015560408201518160020160006101000a81548173ffffffffffffffffffffffffffffffffffffffff021916908373ffffffffffffffffffffffffffffffffffffffff16021790555060608201518160030160006101000a81548173ffffffffffffffffffffffffffffffffffffffff021916908373ffffffffffffffffffffffffffffffffffffffff16021790555060808201518160040160008201518160000190805190602001906200026c9291906200073d565b5060208201518160010160006101000a81548173ffffffffffffffffffffffffffffffffffffffff021916908373ffffffffffffffffffffffffffffffffffffffff160217905550505060a0820151816006016000820151816000019080519060200190620002dd9291906200073d565b5060208201518160010160006101000a81548173ffffffffffffffffffffffffffffffffffffffff021916908373ffffffffffffffffffffffffffffffffffffffff160217905550505060c0820151816008015560e0820151816009015561010082015181600a0155505003600460006040518060000190506040518091039020600019166000191681526020019081526020016000208190555060016002610120604051908101604052806040805190810160405280600881526020017f617472612e61647300000000000000000000000000000000000000000000000081525081526020014281526020013373ffffffffffffffffffffffffffffffffffffffff1681526020013373ffffffffffffffffffffffffffffffffffffffff1681526020016040805190810160405280602060405190810160405280600081525081526020013073ffffffffffffffffffffffffffffffffffffffff1681525081526020016040805190810160405280602060405190810160405280600081525081526020013073ffffffffffffffffffffffffffffffffffffffff16815250815260200142815260200160008152602001428152509080600181540180825580915050906001820390600052602060002090600b0201600090919290919091506000820151816000019080519060200190620004dc9291906200073d565b506020820151816001015560408201518160020160006101000a81548173ffffffffffffffffffffffffffffffffffffffff021916908373ffffffffffffffffffffffffffffffffffffffff16021790555060608201518160030160006101000a81548173ffffffffffffffffffffffffffffffffffffffff021916908373ffffffffffffffffffffffffffffffffffffffff16021790555060808201518160040160008201518160000190805190602001906200059c9291906200073d565b5060208201518160010160006101000a81548173ffffffffffffffffffffffffffffffffffffffff021916908373ffffffffffffffffffffffffffffffffffffffff160217905550505060a08201518160060160008201518160000190805190602001906200060d9291906200073d565b5060208201518160010160006101000a81548173ffffffffffffffffffffffffffffffffffffffff021916908373ffffffffffffffffffffffffffffffffffffffff160217905550505060c0820151816008015560e0820151816009015561010082015181600a01555050036004600060405180807f617472612e616473000000000000000000000000000000000000000000000000815250600801905060405180910390206000191660001916815260200190815260200160002081905550600560003373ffffffffffffffffffffffffffffffffffffffff1673ffffffffffffffffffffffffffffffffffffffff16815260200190815260200160002060019080600181540180825580915050906001820390600052602060002001600090919290919091505550620007ec565b828054600181600116156101000203166002900490600052602060002090601f016020900481019282601f106200078057805160ff1916838001178555620007b1565b82800160010185558215620007b1579182015b82811115620007b057825182559160200191906001019062000793565b5b509050620007c09190620007c4565b5090565b620007e991905b80821115620007e5576000816000905550600101620007cb565b5090565b90565b61511f80620007fc6000396000f300608060405260043610610133576000357c0100000000000000000000000000000000000000000000000000000000900463ffffffff1680630ef678871461013857806315b1b55614610163578063288eea26146102165780632d2569231461027757806335fee77d1461032a5780633f7b4aa1146103ab57806350ae410d1461040c5780635710791d1461052b5780635719715e1461066157806363f32f63146108e1578063710475dc1461092257806372478f1f146109f857806379ba509714610a3d5780638da5cb5b14610a54578063a23b1f0b14610aab578063a5be99dc14610b99578063ab433b1814610bc4578063bf93113d14610c42578063d00f0c4614610cae578063d4ee1d9014610d4c578063d951dbb814610da3578063da0f1bac14610de8578063f2fde38b14610e80575b600080fd5b34801561014457600080fd5b5061014d610ec3565b6040518082815260200191505060405180910390f35b34801561016f57600080fd5b506101d460048036038101908080359060200190929190803590602001908201803590602001908080601f0160208091040260200160405190810160405280939291908181526020018383808284378201915050505050509192919290505050610f3d565b604051808273ffffffffffffffffffffffffffffffffffffffff1673ffffffffffffffffffffffffffffffffffffffff16815260200191505060405180910390f35b34801561022257600080fd5b50610261600480360381019080803573ffffffffffffffffffffffffffffffffffffffff16906020019092919080359060200190929190505050611774565b6040518082815260200191505060405180910390f35b34801561028357600080fd5b506102e860048036038101908080359060200190929190803590602001908201803590602001908080601f01602080910402602001604051908101604052809392919081815260200183838082843782019150505050505091929192905050506117a4565b604051808273ffffffffffffffffffffffffffffffffffffffff1673ffffffffffffffffffffffffffffffffffffffff16815260200191505060405180910390f35b34801561033657600080fd5b50610391600480360381019080803590602001908201803590602001908080601f0160208091040260200160405190810160405280939291908181526020018383808284378201915050505050509192919290505050611924565b604051808215151515815260200191505060405180910390f35b3480156103b757600080fd5b506103f6600480360381019080803573ffffffffffffffffffffffffffffffffffffffff169060200190929190803590602001909291905050506119dc565b6040518082815260200191505060405180910390f35b34801561041857600080fd5b5061047d60048036038101908080359060200190929190803590602001908201803590602001908080601f0160208091040260200160405190810160405280939291908181526020018383808284378201915050505050509192919290505050611a0c565b604051808373ffffffffffffffffffffffffffffffffffffffff1673ffffffffffffffffffffffffffffffffffffffff16815260200180602001828103825283818151815260200191508051906020019080838360005b838110156104ef5780820151818401526020810190506104d4565b50505050905090810190601f16801561051c5780820380516001836020036101000a031916815260200191505b50935050505060405180910390f35b34801561053757600080fd5b5061055660048036038101908080359060200190929190505050612260565b60405180806020018a81526020018973ffffffffffffffffffffffffffffffffffffffff1673ffffffffffffffffffffffffffffffffffffffff1681526020018873ffffffffffffffffffffffffffffffffffffffff1673ffffffffffffffffffffffffffffffffffffffff16815260200187815260200186815260200185815260200184815260200183815260200182810382528b818151815260200191508051906020019080838360005b8381101561061e578082015181840152602081019050610603565b50505050905090810190601f16801561064b5780820380516001836020036101000a031916815260200191505b509a505050505050505050505060405180910390f35b34801561066d57600080fd5b506106d260048036038101908080359060200190929190803590602001908201803590602001908080601f0160208091040260200160405190810160405280939291908181526020018383808284378201915050505050509192919290505050612599565b60405180806020018c73ffffffffffffffffffffffffffffffffffffffff1673ffffffffffffffffffffffffffffffffffffffff168152602001806020018b81526020018a81526020018981526020018873ffffffffffffffffffffffffffffffffffffffff1673ffffffffffffffffffffffffffffffffffffffff168152602001806020018781526020018673ffffffffffffffffffffffffffffffffffffffff1673ffffffffffffffffffffffffffffffffffffffff16815260200185815260200184810384528f818151815260200191508051906020019080838360005b838110156107ce5780820151818401526020810190506107b3565b50505050905090810190601f1680156107fb5780820380516001836020036101000a031916815260200191505b5084810383528d818151815260200191508051906020019080838360005b83811015610834578082015181840152602081019050610819565b50505050905090810190601f1680156108615780820380516001836020036101000a031916815260200191505b50848103825288818151815260200191508051906020019080838360005b8381101561089a57808201518184015260208101905061087f565b50505050905090810190601f1680156108c75780820380516001836020036101000a031916815260200191505b509e50505050505050505050505050505060405180910390f35b3480156108ed57600080fd5b5061090c60048036038101908080359060200190929190505050612e82565b6040518082815260200191505060405180910390f35b6109e2600480360381019080803590602001908201803590602001908080601f0160208091040260200160405190810160405280939291908181526020018383808284378201915050505050509192919290803573ffffffffffffffffffffffffffffffffffffffff169060200190929190803590602001908201803590602001908080601f0160208091040260200160405190810160405280939291908181526020018383808284378201915050505050509192919290505050612fad565b6040518082815260200191505060405180910390f35b348015610a0457600080fd5b50610a2360048036038101908080359060200190929190505050613543565b604051808215151515815260200191505060405180910390f35b348015610a4957600080fd5b50610a52613637565b005b348015610a6057600080fd5b50610a69613813565b604051808273ffffffffffffffffffffffffffffffffffffffff1673ffffffffffffffffffffffffffffffffffffffff16815260200191505060405180910390f35b610b7f60048036038101908080359060200190929190803590602001908201803590602001908080601f016020809104026020016040519081016040528093929190818152602001838380828437820191505050505050919291929080359060200190929190803573ffffffffffffffffffffffffffffffffffffffff169060200190929190803590602001908201803590602001908080601f0160208091040260200160405190810160405280939291908181526020018383808284378201915050505050509192919290505050613838565b604051808215151515815260200191505060405180910390f35b348015610ba557600080fd5b50610bae613c33565b6040518082815260200191505060405180910390f35b610c2860048036038101908080359060200190929190803590602001908201803590602001908080601f0160208091040260200160405190810160405280939291908181526020018383808284378201915050505050509192919290505050613c40565b604051808215151515815260200191505060405180910390f35b348015610c4e57600080fd5b50610c57614803565b6040518080602001828103825283818151815260200191508051906020019060200280838360005b83811015610c9a578082015181840152602081019050610c7f565b505050509050019250505060405180910390f35b610d3260048036038101908080359060200190929190803590602001908201803590602001908080601f0160208091040260200160405190810160405280939291908181526020018383808284378201915050505050509192919290803573ffffffffffffffffffffffffffffffffffffffff169060200190929190505050614898565b604051808215151515815260200191505060405180910390f35b348015610d5857600080fd5b50610d61614cd6565b604051808273ffffffffffffffffffffffffffffffffffffffff1673ffffffffffffffffffffffffffffffffffffffff16815260200191505060405180910390f35b348015610daf57600080fd5b50610dd26004803603810190808035600019169060200190929190505050614cfc565b6040518082815260200191505060405180910390f35b348015610df457600080fd5b50610e29600480360381019080803573ffffffffffffffffffffffffffffffffffffffff169060200190929190505050614d14565b6040518080602001828103825283818151815260200191508051906020019060200280838360005b83811015610e6c578082015181840152602081019050610e51565b505050509050019250505060405180910390f35b348015610e8c57600080fd5b50610ec1600480360381019080803573ffffffffffffffffffffffffffffffffffffffff169060200190929190505050614dab565b005b60008060009054906101000a900473ffffffffffffffffffffffffffffffffffffffff1673ffffffffffffffffffffffffffffffffffffffff163373ffffffffffffffffffffffffffffffffffffffff16141515610f2057600080fd5b3073ffffffffffffffffffffffffffffffffffffffff1631905090565b6000610f47614e66565b60008351111561138d57600260046000856040518082805190602001908083835b602083101515610f8d5780518252602082019150602081019050602083039250610f68565b6001836020036101000a03801982511681845116808217855250505050505090500191505060405180910390206000191660001916815260200190815260200160002054815481101515610fdd57fe5b90600052602060002090600b02016101206040519081016040529081600082018054600181600116156101000203166002900480601f0160208091040260200160405190810160405280929190818152602001828054600181600116156101000203166002900480156110915780601f1061106657610100808354040283529160200191611091565b820191906000526020600020905b81548152906001019060200180831161107457829003601f168201915b50505050508152602001600182015481526020016002820160009054906101000a900473ffffffffffffffffffffffffffffffffffffffff1673ffffffffffffffffffffffffffffffffffffffff1673ffffffffffffffffffffffffffffffffffffffff1681526020016003820160009054906101000a900473ffffffffffffffffffffffffffffffffffffffff1673ffffffffffffffffffffffffffffffffffffffff1673ffffffffffffffffffffffffffffffffffffffff16815260200160048201604080519081016040529081600082018054600181600116156101000203166002900480601f0160208091040260200160405190810160405280929190818152602001828054600181600116156101000203166002900480156111f95780601f106111ce576101008083540402835291602001916111f9565b820191906000526020600020905b8154815290600101906020018083116111dc57829003601f168201915b505050505081526020016001820160009054906101000a900473ffffffffffffffffffffffffffffffffffffffff1673ffffffffffffffffffffffffffffffffffffffff1673ffffffffffffffffffffffffffffffffffffffff1681525050815260200160068201604080519081016040529081600082018054600181600116156101000203166002900480601f0160208091040260200160405190810160405280929190818152602001828054600181600116156101000203166002900480156113055780601f106112da57610100808354040283529160200191611305565b820191906000526020600020905b8154815290600101906020018083116112e857829003601f168201915b505050505081526020016001820160009054906101000a900473ffffffffffffffffffffffffffffffffffffffff1673ffffffffffffffffffffffffffffffffffffffff1673ffffffffffffffffffffffffffffffffffffffff168152505081526020016008820154815260200160098201548152602001600a820154815250509050611748565b60028481548110151561139c57fe5b90600052602060002090600b02016101206040519081016040529081600082018054600181600116156101000203166002900480601f0160208091040260200160405190810160405280929190818152602001828054600181600116156101000203166002900480156114505780601f1061142557610100808354040283529160200191611450565b820191906000526020600020905b81548152906001019060200180831161143357829003601f168201915b50505050508152602001600182015481526020016002820160009054906101000a900473ffffffffffffffffffffffffffffffffffffffff1673ffffffffffffffffffffffffffffffffffffffff1673ffffffffffffffffffffffffffffffffffffffff1681526020016003820160009054906101000a900473ffffffffffffffffffffffffffffffffffffffff1673ffffffffffffffffffffffffffffffffffffffff1673ffffffffffffffffffffffffffffffffffffffff16815260200160048201604080519081016040529081600082018054600181600116156101000203166002900480601f0160208091040260200160405190810160405280929190818152602001828054600181600116156101000203166002900480156115b85780601f1061158d576101008083540402835291602001916115b8565b820191906000526020600020905b81548152906001019060200180831161159b57829003601f168201915b505050505081526020016001820160009054906101000a900473ffffffffffffffffffffffffffffffffffffffff1673ffffffffffffffffffffffffffffffffffffffff1673ffffffffffffffffffffffffffffffffffffffff1681525050815260200160068201604080519081016040529081600082018054600181600116156101000203166002900480601f0160208091040260200160405190810160405280929190818152602001828054600181600116156101000203166002900480156116c45780601f10611699576101008083540402835291602001916116c4565b820191906000526020600020905b8154815290600101906020018083116116a757829003601f168201915b505050505081526020016001820160009054906101000a900473ffffffffffffffffffffffffffffffffffffffff1673ffffffffffffffffffffffffffffffffffffffff1673ffffffffffffffffffffffffffffffffffffffff168152505081526020016008820154815260200160098201548152602001600a8201548152505090505b428160200151106117615780608001516020015161176b565b8060a00151602001515b91505092915050565b60056020528160005260406000208181548110151561178f57fe5b90600052602060002001600091509150505481565b60008060008351111561185257600260046000856040518082805190602001908083835b6020831015156117ed57805182526020820191506020810190506020830392506117c8565b6001836020036101000a0380198251168184511680821785525050505050509050019150506040518091039020600019166000191681526020019081526020016000205481548110151561183d57fe5b90600052602060002090600b02019050611872565b60028481548110151561186157fe5b90600052602060002090600b020190505b8060020160009054906101000a900473ffffffffffffffffffffffffffffffffffffffff1673ffffffffffffffffffffffffffffffffffffffff168160030160009054906101000a900473ffffffffffffffffffffffffffffffffffffffff1673ffffffffffffffffffffffffffffffffffffffff1614156118f557600061191b565b8060030160009054906101000a900473ffffffffffffffffffffffffffffffffffffffff165b91505092915050565b600080825111801561193857506064825111155b151561194357600080fd5b600060046000846040518082805190602001908083835b60208310151561197f578051825260208201915060208101905060208303925061195a565b6001836020036101000a0380198251168184511680821785525050505050509050019150506040518091039020600019166000191681526020019081526020016000205414156119d257600090506119d7565b600190505b919050565b6006602052816000526040600020818154811015156119f757fe5b90600052602060002001600091509150505481565b60006060611a18614e66565b600084511115611e5e57600260046000866040518082805190602001908083835b602083101515611a5e5780518252602082019150602081019050602083039250611a39565b6001836020036101000a03801982511681845116808217855250505050505090500191505060405180910390206000191660001916815260200190815260200160002054815481101515611aae57fe5b90600052602060002090600b02016101206040519081016040529081600082018054600181600116156101000203166002900480601f016020809104026020016040519081016040528092919081815260200182805460018160011615610100020316600290048015611b625780601f10611b3757610100808354040283529160200191611b62565b820191906000526020600020905b815481529060010190602001808311611b4557829003601f168201915b50505050508152602001600182015481526020016002820160009054906101000a900473ffffffffffffffffffffffffffffffffffffffff1673ffffffffffffffffffffffffffffffffffffffff1673ffffffffffffffffffffffffffffffffffffffff1681526020016003820160009054906101000a900473ffffffffffffffffffffffffffffffffffffffff1673ffffffffffffffffffffffffffffffffffffffff1673ffffffffffffffffffffffffffffffffffffffff16815260200160048201604080519081016040529081600082018054600181600116156101000203166002900480601f016020809104026020016040519081016040528092919081815260200182805460018160011615610100020316600290048015611cca5780601f10611c9f57610100808354040283529160200191611cca565b820191906000526020600020905b815481529060010190602001808311611cad57829003601f168201915b505050505081526020016001820160009054906101000a900473ffffffffffffffffffffffffffffffffffffffff1673ffffffffffffffffffffffffffffffffffffffff1673ffffffffffffffffffffffffffffffffffffffff1681525050815260200160068201604080519081016040529081600082018054600181600116156101000203166002900480601f016020809104026020016040519081016040528092919081815260200182805460018160011615610100020316600290048015611dd65780601f10611dab57610100808354040283529160200191611dd6565b820191906000526020600020905b815481529060010190602001808311611db957829003601f168201915b505050505081526020016001820160009054906101000a900473ffffffffffffffffffffffffffffffffffffffff1673ffffffffffffffffffffffffffffffffffffffff1673ffffffffffffffffffffffffffffffffffffffff168152505081526020016008820154815260200160098201548152602001600a820154815250509050612219565b600285815481101515611e6d57fe5b90600052602060002090600b02016101206040519081016040529081600082018054600181600116156101000203166002900480601f016020809104026020016040519081016040528092919081815260200182805460018160011615610100020316600290048015611f215780601f10611ef657610100808354040283529160200191611f21565b820191906000526020600020905b815481529060010190602001808311611f0457829003601f168201915b50505050508152602001600182015481526020016002820160009054906101000a900473ffffffffffffffffffffffffffffffffffffffff1673ffffffffffffffffffffffffffffffffffffffff1673ffffffffffffffffffffffffffffffffffffffff1681526020016003820160009054906101000a900473ffffffffffffffffffffffffffffffffffffffff1673ffffffffffffffffffffffffffffffffffffffff1673ffffffffffffffffffffffffffffffffffffffff16815260200160048201604080519081016040529081600082018054600181600116156101000203166002900480601f0160208091040260200160405190810160405280929190818152602001828054600181600116156101000203166002900480156120895780601f1061205e57610100808354040283529160200191612089565b820191906000526020600020905b81548152906001019060200180831161206c57829003601f168201915b505050505081526020016001820160009054906101000a900473ffffffffffffffffffffffffffffffffffffffff1673ffffffffffffffffffffffffffffffffffffffff1673ffffffffffffffffffffffffffffffffffffffff1681525050815260200160068201604080519081016040529081600082018054600181600116156101000203166002900480601f0160208091040260200160405190810160405280929190818152602001828054600181600116156101000203166002900480156121955780601f1061216a57610100808354040283529160200191612195565b820191906000526020600020905b81548152906001019060200180831161217857829003601f168201915b505050505081526020016001820160009054906101000a900473ffffffffffffffffffffffffffffffffffffffff1673ffffffffffffffffffffffffffffffffffffffff1673ffffffffffffffffffffffffffffffffffffffff168152505081526020016008820154815260200160098201548152602001600a8201548152505090505b4281602001511061223e57806080015160200151816080015160000151809050612254565b8060a00151602001518160a00151600001518090505b92509250509250929050565b60028181548110151561226f57fe5b90600052602060002090600b0201600091509050806000018054600181600116156101000203166002900480601f01602080910402602001604051908101604052809291908181526020018280546001816001161561010002031660029004801561231b5780601f106122f05761010080835404028352916020019161231b565b820191906000526020600020905b8154815290600101906020018083116122fe57829003601f168201915b5050505050908060010154908060020160009054906101000a900473ffffffffffffffffffffffffffffffffffffffff16908060030160009054906101000a900473ffffffffffffffffffffffffffffffffffffffff169080600401604080519081016040529081600082018054600181600116156101000203166002900480601f01602080910402602001604051908101604052809291908181526020018280546001816001161561010002031660029004801561241b5780601f106123f05761010080835404028352916020019161241b565b820191906000526020600020905b8154815290600101906020018083116123fe57829003601f168201915b505050505081526020016001820160009054906101000a900473ffffffffffffffffffffffffffffffffffffffff1673ffffffffffffffffffffffffffffffffffffffff1673ffffffffffffffffffffffffffffffffffffffff16815250509080600601604080519081016040529081600082018054600181600116156101000203166002900480601f0160208091040260200160405190810160405280929190818152602001828054600181600116156101000203166002900480156125235780601f106124f857610100808354040283529160200191612523565b820191906000526020600020905b81548152906001019060200180831161250657829003601f168201915b505050505081526020016001820160009054906101000a900473ffffffffffffffffffffffffffffffffffffffff1673ffffffffffffffffffffffffffffffffffffffff1673ffffffffffffffffffffffffffffffffffffffff16815250509080600801549080600901549080600a0154905089565b606060006060600080600080606060008060006125b4614e66565b60008d5111156129fa576002600460008f6040518082805190602001908083835b6020831015156125fa57805182526020820191506020810190506020830392506125d5565b6001836020036101000a0380198251168184511680821785525050505050509050019150506040518091039020600019166000191681526020019081526020016000205481548110151561264a57fe5b90600052602060002090600b02016101206040519081016040529081600082018054600181600116156101000203166002900480601f0160208091040260200160405190810160405280929190818152602001828054600181600116156101000203166002900480156126fe5780601f106126d3576101008083540402835291602001916126fe565b820191906000526020600020905b8154815290600101906020018083116126e157829003601f168201915b50505050508152602001600182015481526020016002820160009054906101000a900473ffffffffffffffffffffffffffffffffffffffff1673ffffffffffffffffffffffffffffffffffffffff1673ffffffffffffffffffffffffffffffffffffffff1681526020016003820160009054906101000a900473ffffffffffffffffffffffffffffffffffffffff1673ffffffffffffffffffffffffffffffffffffffff1673ffffffffffffffffffffffffffffffffffffffff16815260200160048201604080519081016040529081600082018054600181600116156101000203166002900480601f0160208091040260200160405190810160405280929190818152602001828054600181600116156101000203166002900480156128665780601f1061283b57610100808354040283529160200191612866565b820191906000526020600020905b81548152906001019060200180831161284957829003601f168201915b505050505081526020016001820160009054906101000a900473ffffffffffffffffffffffffffffffffffffffff1673ffffffffffffffffffffffffffffffffffffffff1673ffffffffffffffffffffffffffffffffffffffff1681525050815260200160068201604080519081016040529081600082018054600181600116156101000203166002900480601f0160208091040260200160405190810160405280929190818152602001828054600181600116156101000203166002900480156129725780601f1061294757610100808354040283529160200191612972565b820191906000526020600020905b81548152906001019060200180831161295557829003601f168201915b505050505081526020016001820160009054906101000a900473ffffffffffffffffffffffffffffffffffffffff1673ffffffffffffffffffffffffffffffffffffffff1673ffffffffffffffffffffffffffffffffffffffff168152505081526020016008820154815260200160098201548152602001600a820154815250509050612db5565b60028e815481101515612a0957fe5b90600052602060002090600b02016101206040519081016040529081600082018054600181600116156101000203166002900480601f016020809104026020016040519081016040528092919081815260200182805460018160011615610100020316600290048015612abd5780601f10612a9257610100808354040283529160200191612abd565b820191906000526020600020905b815481529060010190602001808311612aa057829003601f168201915b50505050508152602001600182015481526020016002820160009054906101000a900473ffffffffffffffffffffffffffffffffffffffff1673ffffffffffffffffffffffffffffffffffffffff1673ffffffffffffffffffffffffffffffffffffffff1681526020016003820160009054906101000a900473ffffffffffffffffffffffffffffffffffffffff1673ffffffffffffffffffffffffffffffffffffffff1673ffffffffffffffffffffffffffffffffffffffff16815260200160048201604080519081016040529081600082018054600181600116156101000203166002900480601f016020809104026020016040519081016040528092919081815260200182805460018160011615610100020316600290048015612c255780601f10612bfa57610100808354040283529160200191612c25565b820191906000526020600020905b815481529060010190602001808311612c0857829003601f168201915b505050505081526020016001820160009054906101000a900473ffffffffffffffffffffffffffffffffffffffff1673ffffffffffffffffffffffffffffffffffffffff1673ffffffffffffffffffffffffffffffffffffffff1681525050815260200160068201604080519081016040529081600082018054600181600116156101000203166002900480601f016020809104026020016040519081016040528092919081815260200182805460018160011615610100020316600290048015612d315780601f10612d0657610100808354040283529160200191612d31565b820191906000526020600020905b815481529060010190602001808311612d1457829003601f168201915b505050505081526020016001820160009054906101000a900473ffffffffffffffffffffffffffffffffffffffff1673ffffffffffffffffffffffffffffffffffffffff1673ffffffffffffffffffffffffffffffffffffffff168152505081526020016008820154815260200160098201548152602001600a8201548152505090505b806000015181608001516020015182608001516000015142846020015110612de257836101000151612de8565b83602001515b42856020015110612dfd578460e00151612e16565b612e1560018660e00151614e4a90919063ffffffff16565b5b85602001518660a00151602001518760a001516000015142896020015110612e3f576000612e42565b60015b89604001518a60c001518a9a508898508393508260ff1692509b509b509b509b509b509b509b509b509b509b509b50509295989b509295989b9093969950565b600080612ec560006040805190810160405280601081526020017f617472612e6164732e70726963696e6700000000000000000000000000000000815250610f3d565b90508073ffffffffffffffffffffffffffffffffffffffff16635d59159533856040518363ffffffff167c0100000000000000000000000000000000000000000000000000000000028152600401808373ffffffffffffffffffffffffffffffffffffffff1673ffffffffffffffffffffffffffffffffffffffff16815260200182815260200192505050602060405180830381600087803b158015612f6a57600080fd5b505af1158015612f7e573d6000803e3d6000fd5b505050506040513d6020811015612f9457600080fd5b8101908080519060200190929190505050915050919050565b6000806000809054906101000a900473ffffffffffffffffffffffffffffffffffffffff1673ffffffffffffffffffffffffffffffffffffffff163373ffffffffffffffffffffffffffffffffffffffff16148061301357506130106000612e82565b34145b151561301e57600080fd5b6000855111801561303157506064855111155b80156130405750610100835111155b151561304b57600080fd5b600060046000876040518082805190602001908083835b6020831015156130875780518252602082019150602081019050602083039250613062565b6001836020036101000a038019825116818451168082178552505050505050905001915050604051809103902060001916600019168152602001908152602001600020541415156130d757600080fd5b60016002610120604051908101604052808881526020014281526020013373ffffffffffffffffffffffffffffffffffffffff1681526020013373ffffffffffffffffffffffffffffffffffffffff16815260200160408051908101604052808881526020018973ffffffffffffffffffffffffffffffffffffffff16815250815260200160408051908101604052808881526020018973ffffffffffffffffffffffffffffffffffffffff16815250815260200142815260200160008152602001428152509080600181540180825580915050906001820390600052602060002090600b02016000909192909190915060008201518160000190805190602001906131e4929190614eeb565b506020820151816001015560408201518160020160006101000a81548173ffffffffffffffffffffffffffffffffffffffff021916908373ffffffffffffffffffffffffffffffffffffffff16021790555060608201518160030160006101000a81548173ffffffffffffffffffffffffffffffffffffffff021916908373ffffffffffffffffffffffffffffffffffffffff16021790555060808201518160040160008201518160000190805190602001906132a2929190614eeb565b5060208201518160010160006101000a81548173ffffffffffffffffffffffffffffffffffffffff021916908373ffffffffffffffffffffffffffffffffffffffff160217905550505060a0820151816006016000820151816000019080519060200190613311929190614eeb565b5060208201518160010160006101000a81548173ffffffffffffffffffffffffffffffffffffffff021916908373ffffffffffffffffffffffffffffffffffffffff160217905550505060c0820151816008015560e0820151816009015561010082015181600a01555050039050600560003373ffffffffffffffffffffffffffffffffffffffff1673ffffffffffffffffffffffffffffffffffffffff1681526020019081526020016000208190806001815401808255809150509060018203906000526020600020016000909192909190915055507f98cafb7e74384b4a9b05287c7860571dd853f05e392d4252ed672f9720d97d24853360405180806020018373ffffffffffffffffffffffffffffffffffffffff1673ffffffffffffffffffffffffffffffffffffffff168152602001828103825284818151815260200191508051906020019080838360005b8381101561347d578082015181840152602081019050613462565b50505050905090810190601f1680156134aa5780820380516001836020036101000a031916815260200191505b50935050505060405180910390a18060046000876040518082805190602001908083835b6020831015156134f357805182526020820191506020810190506020830392506134ce565b6001836020036101000a0380198251168184511680821785525050505050509050019150506040518091039020600019166000191681526020019081526020016000208190559150509392505050565b60008060009054906101000a900473ffffffffffffffffffffffffffffffffffffffff1673ffffffffffffffffffffffffffffffffffffffff163373ffffffffffffffffffffffffffffffffffffffff161415156135a057600080fd5b6000809054906101000a900473ffffffffffffffffffffffffffffffffffffffff1673ffffffffffffffffffffffffffffffffffffffff166108fc600084146135e95783613602565b3073ffffffffffffffffffffffffffffffffffffffff16315b9081150290604051600060405180830381858888f1935050505015801561362d573d6000803e3d6000fd5b5060019050919050565b600160009054906101000a900473ffffffffffffffffffffffffffffffffffffffff1673ffffffffffffffffffffffffffffffffffffffff163373ffffffffffffffffffffffffffffffffffffffff1614151561369357600080fd5b7f8be0079c531659141344cd1fd0a4f28419497f9722a3daafe3b4186f6b6457e06000809054906101000a900473ffffffffffffffffffffffffffffffffffffffff16600160009054906101000a900473ffffffffffffffffffffffffffffffffffffffff16604051808373ffffffffffffffffffffffffffffffffffffffff1673ffffffffffffffffffffffffffffffffffffffff1681526020018273ffffffffffffffffffffffffffffffffffffffff1673ffffffffffffffffffffffffffffffffffffffff1681526020019250505060405180910390a1600160009054906101000a900473ffffffffffffffffffffffffffffffffffffffff166000806101000a81548173ffffffffffffffffffffffffffffffffffffffff021916908373ffffffffffffffffffffffffffffffffffffffff1602179055506000600160006101000a81548173ffffffffffffffffffffffffffffffffffffffff021916908373ffffffffffffffffffffffffffffffffffffffff160217905550565b6000809054906101000a900473ffffffffffffffffffffffffffffffffffffffff1681565b6000806000809054906101000a900473ffffffffffffffffffffffffffffffffffffffff1673ffffffffffffffffffffffffffffffffffffffff163373ffffffffffffffffffffffffffffffffffffffff16148061389e575061389b6001612e82565b34145b15156138a957600080fd5b6101008351111515156138bb57600080fd5b60008651111561396657600260046000886040518082805190602001908083835b60208310151561390157805182526020820191506020810190506020830392506138dc565b6001836020036101000a0380198251168184511680821785525050505050509050019150506040518091039020600019166000191681526020019081526020016000205481548110151561395157fe5b90600052602060002090600b02019050613986565b60028781548110151561397557fe5b90600052602060002090600b020190505b3373ffffffffffffffffffffffffffffffffffffffff168160020160009054906101000a900473ffffffffffffffffffffffffffffffffffffffff1673ffffffffffffffffffffffffffffffffffffffff161415156139e457600080fd5b4281600101541015613ab857806006018160040160008201816000019080546001816001161561010002031660029004613a1f929190614f6b565b506001820160009054906101000a900473ffffffffffffffffffffffffffffffffffffffff168160010160006101000a81548173ffffffffffffffffffffffffffffffffffffffff021916908373ffffffffffffffffffffffffffffffffffffffff160217905550905050806001015481600a0181905550613aaf60018260090154614e4a90919063ffffffff16565b81600901819055505b613acb8542614e4a90919063ffffffff16565b8160010181905550838160060160010160006101000a81548173ffffffffffffffffffffffffffffffffffffffff021916908373ffffffffffffffffffffffffffffffffffffffff16021790555082816006016000019080519060200190613b34929190614ff2565b507fd9259f20e97fc7f3a9a097b4cdff953ba09e4e0fb7fc0aae8064429f8111e721816000013360405180806020018373ffffffffffffffffffffffffffffffffffffffff1673ffffffffffffffffffffffffffffffffffffffff168152602001828103825284818154600181600116156101000203166002900481526020019150805460018160011615610100020316600290048015613c165780601f10613beb57610100808354040283529160200191613c16565b820191906000526020600020905b815481529060010190602001808311613bf957829003601f168201915b5050935050505060405180910390a1600191505095945050505050565b6000600280549050905090565b6000806000806000806000809054906101000a900473ffffffffffffffffffffffffffffffffffffffff1673ffffffffffffffffffffffffffffffffffffffff163373ffffffffffffffffffffffffffffffffffffffff161480613cac5750613ca96003612e82565b34145b1515613cb757600080fd5b600087511115613de25760046000886040518082805190602001908083835b602083101515613cfb5780518252602082019150602081019050602083039250613cd6565b6001836020036101000a038019825116818451168082178552505050505050905001915050604051809103902060001916600019168152602001908152602001600020549750600260046000896040518082805190602001908083835b602083101515613d7d5780518252602082019150602081019050602083039250613d58565b6001836020036101000a03801982511681845116808217855250505050505090500191505060405180910390206000191660001916815260200190815260200160002054815481101515613dcd57fe5b90600052602060002090600b02019450613e02565b600288815481101515613df157fe5b90600052602060002090600b020194505b3373ffffffffffffffffffffffffffffffffffffffff168560030160009054906101000a900473ffffffffffffffffffffffffffffffffffffffff1673ffffffffffffffffffffffffffffffffffffffff16141515613e6057600080fd5b600560008660020160009054906101000a900473ffffffffffffffffffffffffffffffffffffffff1673ffffffffffffffffffffffffffffffffffffffff1673ffffffffffffffffffffffffffffffffffffffff1681526020019081526020016000206001600560008860020160009054906101000a900473ffffffffffffffffffffffffffffffffffffffff1673ffffffffffffffffffffffffffffffffffffffff1673ffffffffffffffffffffffffffffffffffffffff1681526020019081526020016000208054905003815481101515613f3957fe5b90600052602060002001549350600092505b600560008660020160009054906101000a900473ffffffffffffffffffffffffffffffffffffffff1673ffffffffffffffffffffffffffffffffffffffff1673ffffffffffffffffffffffffffffffffffffffff168152602001908152602001600020805490508310156140c85787600560008760020160009054906101000a900473ffffffffffffffffffffffffffffffffffffffff1673ffffffffffffffffffffffffffffffffffffffff1673ffffffffffffffffffffffffffffffffffffffff1681526020019081526020016000208481548110151561402a57fe5b906000526020600020015414156140bb5783600560008760020160009054906101000a900473ffffffffffffffffffffffffffffffffffffffff1673ffffffffffffffffffffffffffffffffffffffff1673ffffffffffffffffffffffffffffffffffffffff168152602001908152602001600020848154811015156140ac57fe5b90600052602060002001819055505b8280600101935050613f4b565b600560008660020160009054906101000a900473ffffffffffffffffffffffffffffffffffffffff1673ffffffffffffffffffffffffffffffffffffffff1673ffffffffffffffffffffffffffffffffffffffff1681526020019081526020016000206001600560008860020160009054906101000a900473ffffffffffffffffffffffffffffffffffffffff1673ffffffffffffffffffffffffffffffffffffffff1673ffffffffffffffffffffffffffffffffffffffff16815260200190815260200160002080549050038154811015156141a157fe5b9060005260206000200160009055600560008660020160009054906101000a900473ffffffffffffffffffffffffffffffffffffffff1673ffffffffffffffffffffffffffffffffffffffff1673ffffffffffffffffffffffffffffffffffffffff1681526020019081526020016000208054809190600190036142259190615072565b508460030160009054906101000a900473ffffffffffffffffffffffffffffffffffffffff168560020160006101000a81548173ffffffffffffffffffffffffffffffffffffffff021916908373ffffffffffffffffffffffffffffffffffffffff160217905550600560008660020160009054906101000a900473ffffffffffffffffffffffffffffffffffffffff1673ffffffffffffffffffffffffffffffffffffffff1673ffffffffffffffffffffffffffffffffffffffff168152602001908152602001600020889080600181540180825580915050906001820390600052602060002001600090919290919091505550600660008660020160009054906101000a900473ffffffffffffffffffffffffffffffffffffffff1673ffffffffffffffffffffffffffffffffffffffff1673ffffffffffffffffffffffffffffffffffffffff1681526020019081526020016000206001600660008860020160009054906101000a900473ffffffffffffffffffffffffffffffffffffffff1673ffffffffffffffffffffffffffffffffffffffff1673ffffffffffffffffffffffffffffffffffffffff16815260200190815260200160002080549050038154811015156143f357fe5b90600052602060002001549150600090505b600660008660020160009054906101000a900473ffffffffffffffffffffffffffffffffffffffff1673ffffffffffffffffffffffffffffffffffffffff1673ffffffffffffffffffffffffffffffffffffffff168152602001908152602001600020805490508110156145825787600660008760020160009054906101000a900473ffffffffffffffffffffffffffffffffffffffff1673ffffffffffffffffffffffffffffffffffffffff1673ffffffffffffffffffffffffffffffffffffffff168152602001908152602001600020828154811015156144e457fe5b906000526020600020015414156145755781600660008760020160009054906101000a900473ffffffffffffffffffffffffffffffffffffffff1673ffffffffffffffffffffffffffffffffffffffff1673ffffffffffffffffffffffffffffffffffffffff1681526020019081526020016000208281548110151561456657fe5b90600052602060002001819055505b8080600101915050614405565b600660008660020160009054906101000a900473ffffffffffffffffffffffffffffffffffffffff1673ffffffffffffffffffffffffffffffffffffffff1673ffffffffffffffffffffffffffffffffffffffff1681526020019081526020016000206001600660008860020160009054906101000a900473ffffffffffffffffffffffffffffffffffffffff1673ffffffffffffffffffffffffffffffffffffffff1673ffffffffffffffffffffffffffffffffffffffff168152602001908152602001600020805490500381548110151561465b57fe5b9060005260206000200160009055600660008660020160009054906101000a900473ffffffffffffffffffffffffffffffffffffffff1673ffffffffffffffffffffffffffffffffffffffff1673ffffffffffffffffffffffffffffffffffffffff1681526020019081526020016000208054809190600190036146df9190615072565b507f780d8108bb9b1b7aee5f31f6608e32ad2851b5fd6d62e0b7f496ef354aaace7c856000018660020160009054906101000a900473ffffffffffffffffffffffffffffffffffffffff1660405180806020018373ffffffffffffffffffffffffffffffffffffffff1673ffffffffffffffffffffffffffffffffffffffff1681526020018281038252848181546001816001161561010002031660029004815260200191508054600181600116156101000203166002900480156147e55780601f106147ba576101008083540402835291602001916147e5565b820191906000526020600020905b8154815290600101906020018083116147c857829003601f168201915b5050935050505060405180910390a160019550505050505092915050565b6060600660003373ffffffffffffffffffffffffffffffffffffffff1673ffffffffffffffffffffffffffffffffffffffff16815260200190815260200160002080548060200260200160405190810160405280929190818152602001828054801561488e57602002820191906000526020600020905b81548152602001906001019080831161487a575b5050505050905090565b6000806000809054906101000a900473ffffffffffffffffffffffffffffffffffffffff1673ffffffffffffffffffffffffffffffffffffffff163373ffffffffffffffffffffffffffffffffffffffff1614806148fe57506148fb6002612e82565b34145b151561490957600080fd5b600084511115614a345760046000856040518082805190602001908083835b60208310151561494d5780518252602082019150602081019050602083039250614928565b6001836020036101000a038019825116818451168082178552505050505050905001915050604051809103902060001916600019168152602001908152602001600020549450600260046000866040518082805190602001908083835b6020831015156149cf57805182526020820191506020810190506020830392506149aa565b6001836020036101000a03801982511681845116808217855250505050505090500191505060405180910390206000191660001916815260200190815260200160002054815481101515614a1f57fe5b90600052602060002090600b02019050614a54565b600285815481101515614a4357fe5b90600052602060002090600b020190505b3373ffffffffffffffffffffffffffffffffffffffff168160020160009054906101000a900473ffffffffffffffffffffffffffffffffffffffff1673ffffffffffffffffffffffffffffffffffffffff16141515614ab257600080fd5b828160030160006101000a81548173ffffffffffffffffffffffffffffffffffffffff021916908373ffffffffffffffffffffffffffffffffffffffff160217905550600660008260030160009054906101000a900473ffffffffffffffffffffffffffffffffffffffff1673ffffffffffffffffffffffffffffffffffffffff1673ffffffffffffffffffffffffffffffffffffffff1681526020019081526020016000208590806001815401808255809150509060018203906000526020600020016000909192909190915055507f4b2185bad34eb46c0a101e6fe10bf6c1ccb662d34671d7317512e5afc00c604a81600001338360030160009054906101000a900473ffffffffffffffffffffffffffffffffffffffff1660405180806020018473ffffffffffffffffffffffffffffffffffffffff1673ffffffffffffffffffffffffffffffffffffffff1681526020018373ffffffffffffffffffffffffffffffffffffffff1673ffffffffffffffffffffffffffffffffffffffff168152602001828103825285818154600181600116156101000203166002900481526020019150805460018160011615610100020316600290048015614cba5780601f10614c8f57610100808354040283529160200191614cba565b820191906000526020600020905b815481529060010190602001808311614c9d57829003601f168201915b505094505050505060405180910390a160019150509392505050565b600160009054906101000a900473ffffffffffffffffffffffffffffffffffffffff1681565b60046020528060005260406000206000915090505481565b6060600560008373ffffffffffffffffffffffffffffffffffffffff1673ffffffffffffffffffffffffffffffffffffffff168152602001908152602001600020805480602002602001604051908101604052809291908181526020018280548015614d9f57602002820191906000526020600020905b815481526020019060010190808311614d8b575b50505050509050919050565b6000809054906101000a900473ffffffffffffffffffffffffffffffffffffffff1673ffffffffffffffffffffffffffffffffffffffff163373ffffffffffffffffffffffffffffffffffffffff16141515614e0657600080fd5b80600160006101000a81548173ffffffffffffffffffffffffffffffffffffffff021916908373ffffffffffffffffffffffffffffffffffffffff16021790555050565b60008183019050828110151515614e6057600080fd5b92915050565b610160604051908101604052806060815260200160008152602001600073ffffffffffffffffffffffffffffffffffffffff168152602001600073ffffffffffffffffffffffffffffffffffffffff168152602001614ec361509e565b8152602001614ed061509e565b81526020016000815260200160008152602001600081525090565b828054600181600116156101000203166002900490600052602060002090601f016020900481019282601f10614f2c57805160ff1916838001178555614f5a565b82800160010185558215614f5a579182015b82811115614f59578251825591602001919060010190614f3e565b5b509050614f6791906150ce565b5090565b828054600181600116156101000203166002900490600052602060002090601f016020900481019282601f10614fa45780548555614fe1565b82800160010185558215614fe157600052602060002091601f016020900482015b82811115614fe0578254825591600101919060010190614fc5565b5b509050614fee91906150ce565b5090565b828054600181600116156101000203166002900490600052602060002090601f016020900481019282601f1061503357805160ff1916838001178555615061565b82800160010185558215615061579182015b82811115615060578251825591602001919060010190615045565b5b50905061506e91906150ce565b5090565b8154818355818111156150995781836000526020600020918201910161509891906150ce565b5b505050565b604080519081016040528060608152602001600073ffffffffffffffffffffffffffffffffffffffff1681525090565b6150f091905b808211156150ec5760008160009055506001016150d4565b5090565b905600a165627a7a723058205dfbe8c33e7ea4149467dc2e64388926b2dc2493a40c6d0003cceb0d025092a40029",
  "source": "pragma solidity^0.4.20;\n/*\n    Company: Atra Blockchain Services LLC\n    Website: atra.io\n    Author: Dillon Vincent\n    Title: Address Delegate Service (ADS)\n    Documentation: atra.readthedocs.io\n    Date: 4/4/18\n*/\ninterface IADS {\n    function Create(string name, address currentAddress, string currentAbiLocation) public payable returns(uint newRouteId);\n\n    function ScheduleUpdate(uint _id, string _name, uint _release, address _addr, string _abiUrl) public payable returns(bool success);\n\n    function Get(uint _id, string _name) public view returns(string name, address addr, string abiUrl, uint released, uint version, uint update, address updateAddr, string updateAbiUrl, uint active, address owner, uint created);\n\n    function GetRouteIdsForOwner(address _owner) public view returns(uint[] routeIds);\n\n    function GetAddress(uint _id, string _name) public view returns(address addr);\n\n    function GetAddressAndAbi(uint _id, string _name) public view returns(address addr, string abiUrl);\n\n    function RoutesLength() public view returns(uint length);\n\n    function NameTaken(string _name) public view returns(bool taken);\n\n    function GetPendingRouteTransfer(uint _id, string _name) public view returns(address addr);\n\n    function GetPendingTransfersForSender() public view returns(uint[] routeIds);\n\n    function TransferRouteOwnership(uint _id, string _name, address _owner) public payable returns(bool success);\n\n    function AcceptRouteOwnership(uint _id, string _name) public payable returns(bool success);\n}\n\ninterface IPricing {\n    function GetPrice(address _sender, uint _option) external view returns (uint price);\n}\ncontract AtraOwners {\n    address public owner;\n    address public newOwner;\n\n    event OwnershipTransferred(address from, address to);\n\n    constructor() public {\n        owner = msg.sender;\n    }\n\n    modifier isOwner {\n        require(msg.sender == owner);\n        _;\n    }\n\n    function transferOwnership(address _newOwner) public isOwner {\n        newOwner = _newOwner;\n    }\n    function acceptOwnership() public {\n        require(msg.sender == newOwner);\n        emit OwnershipTransferred(owner, newOwner);\n        owner = newOwner;\n        newOwner = address(0);\n    }\n}\nlibrary SafeMath {\n    function add(uint a, uint b) internal pure returns (uint c) {\n        c = a + b;\n        require(c >= a);\n    }\n}\n\ncontract ADS is IADS, AtraOwners {\n    using SafeMath for uint;\n\n    struct RouteData {\n        string abiLocation; // url pointing to the abi json\n        address contractAddress; // address pointing to an ethereum contract\n    }\n\n    struct Route {\n        string name; //this will never change, used as a key\n        uint updateRelease; // the epoch time when the updated contract data is released\n        address owner; // address that owns/created and can modify route\n        address newOwner; // used to transfer ownership\n        RouteData current; // current contract data\n        RouteData update; // scheduled update contract data\n        uint created; //time created\n        uint version; // auto increment\n        uint released; //when the last release was\n    }\n\n    // Declare Storage\n    Route[] public Routes;\n    bool pendingReset = false;\n    mapping(bytes32 => uint) public ContractNamesToRoutes; // (keccak256('Route Name') => routeId)\n    mapping(address => uint[]) public OwnersToRoutes;\n    mapping(address => uint[]) public OwnersToPendingTransfersByRouteId;\n\n    //Events\n    event RouteCreated(string name, address owner);\n    event UpdateScheduled(string name, address owner);\n    event TransferOwnership(string name, address owner, address newOwner);\n    event AcceptOwnership(string name, address newOwner);\n\n    //Constructor\n    constructor() public {\n        // Create padding in Routes array to be able to check for unique name in list by returning 0 for no match\n        ContractNamesToRoutes[keccak256('')] = Routes.push(Route('', now, this, this, RouteData('',this), RouteData('',this), now, 0, now)) -1;\n        // Register ADS to position 1\n        ContractNamesToRoutes[keccak256('atra.ads')] = Routes.push(Route('atra.ads', now, msg.sender, msg.sender, RouteData('',this), RouteData('',this), now, 0, now)) -1;\n        OwnersToRoutes[msg.sender].push(1);\n    }\n\n    function Get(uint _id, string _name) public view returns(\n            string name,\n            address addr,\n            string abiUrl,\n            uint released,\n            uint version,\n            uint update,\n            address updateAddr,\n            string updateAbiUrl,\n            uint active,\n            address owner,\n            uint created\n        ) {\n        Route memory route;\n        if(bytes(_name).length > 0){\n            route = Routes[ContractNamesToRoutes[keccak256(_name)]];\n        }else{\n            route = Routes[_id];\n        }\n        return (\n            route.name, //name\n            route.current.contractAddress, //addr\n            route.current.abiLocation, //abi\n            // if update is active the released date is when it went live, else it's the release date\n            route.updateRelease < now ? route.updateRelease : route.released, //released\n            //check is next contract is active, if so it's a different version add 1, else return normal version\n            route.updateRelease < now ? route.version.add(1) : route.version, //version\n            // active position  will be used to determine what address to use by the client 0=current 1=next\n            route.updateRelease, //update\n            route.update.contractAddress, //updateAddr\n            route.update.abiLocation, //updateAbi\n            route.updateRelease < now ? 1 : 0, //active\n            route.owner, //owner\n            route.created //created\n            );\n    }\n\n    function GetRouteIdsForOwner(address _owner) public view returns(uint[] routeIds) {\n        return OwnersToRoutes[_owner];\n    }\n\n    function GetAddress(uint _id, string _name) public view returns(address addr) {\n        Route memory route;\n        if(bytes(_name).length > 0){\n            route = Routes[ContractNamesToRoutes[keccak256(_name)]];\n        }else{\n            route = Routes[_id];\n        }\n        return route.updateRelease < now ? route.update.contractAddress : route.current.contractAddress;\n    }\n\n    function GetAddressAndAbi(uint _id, string _name) public view returns(address addr, string abiUrl) {\n        Route memory route;\n        if(bytes(_name).length > 0){\n            route = Routes[ContractNamesToRoutes[keccak256(_name)]];\n        }else{\n            route = Routes[_id];\n        }\n        return route.updateRelease < now ? (route.update.contractAddress, route.update.abiLocation) : (route.current.contractAddress, route.current.abiLocation);\n    }\n\n    function RoutesLength() public view returns(uint length){\n        return Routes.length;\n    }\n\n    function NameTaken(string _name) public view returns(bool) {\n        require(bytes(_name).length > 0 && bytes(_name).length <= 100);\n        if(ContractNamesToRoutes[keccak256(_name)] == 0){\n            return false;//name is not taken\n        }else{\n            return true;\n        }\n    }\n\n    function Create(string _name, address _addr, string _abiUrl) public payable returns(uint id) {\n        require(msg.sender == owner || msg.value == Price(0));\n        // validate inputs\n        require(bytes(_name).length > 0 && bytes(_name).length <= 100 && bytes(_abiUrl).length <= 256);\n        require(ContractNamesToRoutes[keccak256(_name)] == 0);\n        uint routeId = Routes.push(Route(_name, now, msg.sender, msg.sender, RouteData(_abiUrl, _addr), RouteData(_abiUrl, _addr),now, 0, now)) -1;\n        OwnersToRoutes[msg.sender].push(routeId);\n        emit RouteCreated(_name, msg.sender);\n        return ContractNamesToRoutes[keccak256(_name)] = routeId;\n    }\n\n    function ScheduleUpdate(uint _id, string _name, uint _release, address _addr, string _abiUrl) public payable returns(bool success) {\n        require(msg.sender == owner || msg.value == Price(1));\n        //dont require name validation since we aren't storing it\n        require(bytes(_abiUrl).length <= 256);\n        Route storage route;\n        if(bytes(_name).length > 0){\n            route = Routes[ContractNamesToRoutes[keccak256(_name)]];\n        }else{\n            route = Routes[_id];\n        }\n        require(route.owner == msg.sender); //require sender to be owner to update\n\n        //if Next Contract Data is active do not overwrite Next data, move it to Current and increment the version\n        if(route.updateRelease < now){\n            route.current = route.update;\n            route.released = route.updateRelease;\n            route.version = route.version.add(1);\n        }\n\n        route.updateRelease = now.add(_release);// if updateRelease is zero update will be live now\n        route.update.contractAddress = _addr; // update next address\n        route.update.abiLocation = _abiUrl; // update next abi location\n        emit UpdateScheduled(route.name, msg.sender);\n        return true; // return success\n    }\n\n    function GetPendingRouteTransfer(uint _id, string _name) public view returns(address addr) {\n        Route storage route;\n        if(bytes(_name).length > 0){\n            route = Routes[ContractNamesToRoutes[keccak256(_name)]];\n        }else{\n            route = Routes[_id];\n        }\n        return route.newOwner != route.owner ? route.newOwner : address(0);\n    }\n\n    function GetPendingTransfersForSender() public view returns(uint[] routeIds) {\n        return OwnersToPendingTransfersByRouteId[msg.sender];\n    }\n\n    function TransferRouteOwnership(uint _id, string _name, address _owner) public payable returns(bool success) {\n        require(msg.sender == owner || msg.value == Price(2));\n        Route storage route;\n        if(bytes(_name).length > 0){\n            _id = ContractNamesToRoutes[keccak256(_name)];\n            route = Routes[ContractNamesToRoutes[keccak256(_name)]];\n        }else{\n            route = Routes[_id];\n        }\n        require(route.owner == msg.sender); //require sender to be owner to transfer ownership\n        route.newOwner = _owner; // set new owner\n        OwnersToPendingTransfersByRouteId[route.newOwner].push(_id);\n        emit TransferOwnership(route.name, msg.sender, route.newOwner);\n        return true; // return success\n    }\n\n    function AcceptRouteOwnership(uint _id, string _name) public payable returns(bool success) {\n        require(msg.sender == owner || msg.value == Price(3));\n        Route storage route;\n        if(bytes(_name).length > 0){\n            _id = ContractNamesToRoutes[keccak256(_name)];\n            route = Routes[ContractNamesToRoutes[keccak256(_name)]];\n        }else{\n            route = Routes[_id];\n        }\n        require(route.newOwner == msg.sender); //require sender to be newOwner to accecpt ownership\n\n        //delete route lookup for pervious owner\n        //get last routeid in array\n        uint keepRouteId = OwnersToRoutes[route.owner][OwnersToRoutes[route.owner].length - 1];\n        //replace routeId marked for delete\n        for(uint x = 0; x < OwnersToRoutes[route.owner].length; x++){\n            if(OwnersToRoutes[route.owner][x] == _id){\n                OwnersToRoutes[route.owner][x] = keepRouteId;\n            }\n        }\n        //delete last position\n        delete OwnersToRoutes[route.owner][OwnersToRoutes[route.owner].length - 1];\n        //adjust array length\n        OwnersToRoutes[route.owner].length--;\n\n         // Add route to new owner\n        route.owner = route.newOwner; // transfer ownership\n        OwnersToRoutes[route.owner].push(_id); // add lookup\n\n\n        // remove route id from PendingRouteOwnershipTransfer for the new owner\n        uint keepPendingRouteId = OwnersToPendingTransfersByRouteId[route.owner][OwnersToPendingTransfersByRouteId[route.owner].length - 1];\n        //replace routeId marked for delete\n        for(uint y = 0; y < OwnersToPendingTransfersByRouteId[route.owner].length; y++){\n            if(OwnersToPendingTransfersByRouteId[route.owner][y] == _id){\n                OwnersToPendingTransfersByRouteId[route.owner][y] = keepPendingRouteId;\n            }\n        }\n        //delete last position\n        delete OwnersToPendingTransfersByRouteId[route.owner][OwnersToPendingTransfersByRouteId[route.owner].length - 1];\n        //adjust array length\n        OwnersToPendingTransfersByRouteId[route.owner].length--;\n\n\n        emit AcceptOwnership(route.name, route.owner);\n        return true; // return success\n    }\n\n    function Price(uint _option) public view returns(uint price) {\n        //Options: 0=create,1=update,2=transfer,3=accepttransfer\n        IPricing pricingContract = IPricing(GetAddress(0,'atra.ads.pricing'));\n        return pricingContract.GetPrice(msg.sender, _option);\n    }\n\n    function Widthdraw(uint _amount) public isOwner returns(bool success) {\n        // if amount is zero take the whole balance else use amount\n        owner.transfer(_amount == 0 ? address(this).balance : _amount);\n        return true;\n    }\n\n    function Balance() public view isOwner returns(uint balance) {\n        return address(this).balance;\n    }\n\n}\n",
  "sourcePath": "/Users/dvincent/dapps/truffle/atra/contracts/ADS.sol",
  "compiler": {
    "name": "solc",
    "version": "0.4.24+commit.e67f0147.Emscripten.clang"
  },
  "schemaVersion": "2.0.0",
  "updatedAt": "2018-06-01T17:18:23.883Z"
}