{
  "contractName": "ADS",
  "abi": [
    {
      "constant": true,
      "inputs": [
        {
          "name": "",
          "type": "address"
        },
        {
          "name": "",
          "type": "uint256"
        }
      ],
      "name": "OwnersToRoutes",
      "outputs": [
        {
          "name": "",
          "type": "uint256"
        }
      ],
      "payable": false,
      "stateMutability": "view",
      "type": "function"
    },
    {
      "constant": true,
      "inputs": [
        {
          "name": "",
          "type": "address"
        },
        {
          "name": "",
          "type": "uint256"
        }
      ],
      "name": "OwnersToPendingTransfersByRouteId",
      "outputs": [
        {
          "name": "",
          "type": "uint256"
        }
      ],
      "payable": false,
      "stateMutability": "view",
      "type": "function"
    },
    {
      "constant": true,
      "inputs": [
        {
          "name": "",
          "type": "uint256"
        }
      ],
      "name": "Routes",
      "outputs": [
        {
          "name": "name",
          "type": "string"
        },
        {
          "name": "updateRelease",
          "type": "uint256"
        },
        {
          "name": "owner",
          "type": "address"
        },
        {
          "name": "newOwner",
          "type": "address"
        },
        {
          "components": [
            {
              "name": "abiLocation",
              "type": "string"
            },
            {
              "name": "contractAddress",
              "type": "address"
            }
          ],
          "name": "current",
          "type": "tuple"
        },
        {
          "components": [
            {
              "name": "abiLocation",
              "type": "string"
            },
            {
              "name": "contractAddress",
              "type": "address"
            }
          ],
          "name": "update",
          "type": "tuple"
        },
        {
          "name": "created",
          "type": "uint256"
        },
        {
          "name": "version",
          "type": "uint256"
        },
        {
          "name": "released",
          "type": "uint256"
        }
      ],
      "payable": false,
      "stateMutability": "view",
      "type": "function"
    },
    {
      "constant": false,
      "inputs": [],
      "name": "acceptOwnership",
      "outputs": [],
      "payable": false,
      "stateMutability": "nonpayable",
      "type": "function"
    },
    {
      "constant": true,
      "inputs": [],
      "name": "owner",
      "outputs": [
        {
          "name": "",
          "type": "address"
        }
      ],
      "payable": false,
      "stateMutability": "view",
      "type": "function"
    },
    {
      "constant": true,
      "inputs": [],
      "name": "newOwner",
      "outputs": [
        {
          "name": "",
          "type": "address"
        }
      ],
      "payable": false,
      "stateMutability": "view",
      "type": "function"
    },
    {
      "constant": true,
      "inputs": [
        {
          "name": "",
          "type": "bytes32"
        }
      ],
      "name": "ContractNamesToRoutes",
      "outputs": [
        {
          "name": "",
          "type": "uint256"
        }
      ],
      "payable": false,
      "stateMutability": "view",
      "type": "function"
    },
    {
      "constant": false,
      "inputs": [
        {
          "name": "_newOwner",
          "type": "address"
        }
      ],
      "name": "transferOwnership",
      "outputs": [],
      "payable": false,
      "stateMutability": "nonpayable",
      "type": "function"
    },
    {
      "inputs": [],
      "payable": false,
      "stateMutability": "nonpayable",
      "type": "constructor"
    },
    {
      "anonymous": false,
      "inputs": [
        {
          "indexed": false,
          "name": "name",
          "type": "string"
        },
        {
          "indexed": false,
          "name": "owner",
          "type": "address"
        }
      ],
      "name": "RouteCreated",
      "type": "event"
    },
    {
      "anonymous": false,
      "inputs": [
        {
          "indexed": false,
          "name": "name",
          "type": "string"
        },
        {
          "indexed": false,
          "name": "owner",
          "type": "address"
        }
      ],
      "name": "UpdateScheduled",
      "type": "event"
    },
    {
      "anonymous": false,
      "inputs": [
        {
          "indexed": false,
          "name": "name",
          "type": "string"
        },
        {
          "indexed": false,
          "name": "owner",
          "type": "address"
        },
        {
          "indexed": false,
          "name": "newOwner",
          "type": "address"
        }
      ],
      "name": "TransferOwnership",
      "type": "event"
    },
    {
      "anonymous": false,
      "inputs": [
        {
          "indexed": false,
          "name": "name",
          "type": "string"
        },
        {
          "indexed": false,
          "name": "newOwner",
          "type": "address"
        }
      ],
      "name": "AcceptOwnership",
      "type": "event"
    },
    {
      "anonymous": false,
      "inputs": [
        {
          "indexed": false,
          "name": "from",
          "type": "address"
        },
        {
          "indexed": false,
          "name": "to",
          "type": "address"
        }
      ],
      "name": "OwnershipTransferred",
      "type": "event"
    },
    {
      "constant": true,
      "inputs": [
        {
          "name": "_id",
          "type": "uint256"
        },
        {
          "name": "_name",
          "type": "string"
        }
      ],
      "name": "Get",
      "outputs": [
        {
          "name": "name",
          "type": "string"
        },
        {
          "name": "addr",
          "type": "address"
        },
        {
          "name": "abiUrl",
          "type": "string"
        },
        {
          "name": "released",
          "type": "uint256"
        },
        {
          "name": "version",
          "type": "uint256"
        },
        {
          "name": "update",
          "type": "uint256"
        },
        {
          "name": "updateAddr",
          "type": "address"
        },
        {
          "name": "updateAbiUrl",
          "type": "string"
        },
        {
          "name": "active",
          "type": "uint256"
        },
        {
          "name": "owner",
          "type": "address"
        },
        {
          "name": "created",
          "type": "uint256"
        }
      ],
      "payable": false,
      "stateMutability": "view",
      "type": "function"
    },
    {
      "constant": true,
      "inputs": [
        {
          "name": "_owner",
          "type": "address"
        }
      ],
      "name": "GetRouteIdsForOwner",
      "outputs": [
        {
          "name": "routeIds",
          "type": "uint256[]"
        }
      ],
      "payable": false,
      "stateMutability": "view",
      "type": "function"
    },
    {
      "constant": true,
      "inputs": [
        {
          "name": "_id",
          "type": "uint256"
        },
        {
          "name": "_name",
          "type": "string"
        }
      ],
      "name": "GetAddress",
      "outputs": [
        {
          "name": "addr",
          "type": "address"
        }
      ],
      "payable": false,
      "stateMutability": "view",
      "type": "function"
    },
    {
      "constant": true,
      "inputs": [
        {
          "name": "_id",
          "type": "uint256"
        },
        {
          "name": "_name",
          "type": "string"
        }
      ],
      "name": "GetAddressAndAbi",
      "outputs": [
        {
          "name": "addr",
          "type": "address"
        },
        {
          "name": "abiUrl",
          "type": "string"
        }
      ],
      "payable": false,
      "stateMutability": "view",
      "type": "function"
    },
    {
      "constant": true,
      "inputs": [],
      "name": "RoutesLength",
      "outputs": [
        {
          "name": "length",
          "type": "uint256"
        }
      ],
      "payable": false,
      "stateMutability": "view",
      "type": "function"
    },
    {
      "constant": true,
      "inputs": [
        {
          "name": "_name",
          "type": "string"
        }
      ],
      "name": "NameTaken",
      "outputs": [
        {
          "name": "",
          "type": "bool"
        }
      ],
      "payable": false,
      "stateMutability": "view",
      "type": "function"
    },
    {
      "constant": false,
      "inputs": [
        {
          "name": "_name",
          "type": "string"
        },
        {
          "name": "_addr",
          "type": "address"
        },
        {
          "name": "_abiUrl",
          "type": "string"
        }
      ],
      "name": "Create",
      "outputs": [
        {
          "name": "id",
          "type": "uint256"
        }
      ],
      "payable": true,
      "stateMutability": "payable",
      "type": "function"
    },
    {
      "constant": false,
      "inputs": [
        {
          "name": "_id",
          "type": "uint256"
        },
        {
          "name": "_name",
          "type": "string"
        },
        {
          "name": "_release",
          "type": "uint256"
        },
        {
          "name": "_addr",
          "type": "address"
        },
        {
          "name": "_abiUrl",
          "type": "string"
        }
      ],
      "name": "ScheduleUpdate",
      "outputs": [
        {
          "name": "success",
          "type": "bool"
        }
      ],
      "payable": true,
      "stateMutability": "payable",
      "type": "function"
    },
    {
      "constant": true,
      "inputs": [
        {
          "name": "_id",
          "type": "uint256"
        },
        {
          "name": "_name",
          "type": "string"
        }
      ],
      "name": "GetPendingRouteTransfer",
      "outputs": [
        {
          "name": "addr",
          "type": "address"
        }
      ],
      "payable": false,
      "stateMutability": "view",
      "type": "function"
    },
    {
      "constant": true,
      "inputs": [],
      "name": "GetPendingTransfersForSender",
      "outputs": [
        {
          "name": "routeIds",
          "type": "uint256[]"
        }
      ],
      "payable": false,
      "stateMutability": "view",
      "type": "function"
    },
    {
      "constant": false,
      "inputs": [
        {
          "name": "_id",
          "type": "uint256"
        },
        {
          "name": "_name",
          "type": "string"
        },
        {
          "name": "_owner",
          "type": "address"
        }
      ],
      "name": "TransferRouteOwnership",
      "outputs": [
        {
          "name": "success",
          "type": "bool"
        }
      ],
      "payable": true,
      "stateMutability": "payable",
      "type": "function"
    },
    {
      "constant": false,
      "inputs": [
        {
          "name": "_id",
          "type": "uint256"
        },
        {
          "name": "_name",
          "type": "string"
        }
      ],
      "name": "AcceptRouteOwnership",
      "outputs": [
        {
          "name": "success",
          "type": "bool"
        }
      ],
      "payable": true,
      "stateMutability": "payable",
      "type": "function"
    },
    {
      "constant": true,
      "inputs": [
        {
          "name": "_option",
          "type": "uint256"
        }
      ],
      "name": "Price",
      "outputs": [
        {
          "name": "price",
          "type": "uint256"
        }
      ],
      "payable": false,
      "stateMutability": "view",
      "type": "function"
    },
    {
      "constant": false,
      "inputs": [
        {
          "name": "_amount",
          "type": "uint256"
        }
      ],
      "name": "Widthdraw",
      "outputs": [
        {
          "name": "success",
          "type": "bool"
        }
      ],
      "payable": false,
      "stateMutability": "nonpayable",
      "type": "function"
    },
    {
      "constant": true,
      "inputs": [],
      "name": "Balance",
      "outputs": [
        {
          "name": "balance",
          "type": "uint256"
        }
      ],
      "payable": false,
      "stateMutability": "view",
      "type": "function"
    }
  ],
  "bytecode": "0x60806040526000600360006101000a81548160ff0219169083151502179055503480156200002c57600080fd5b50336000806101000a81548173ffffffffffffffffffffffffffffffffffffffff021916908373ffffffffffffffffffffffffffffffffffffffff160217905550620000a9602060405190810160405280600081525030602060405190810160405280600081525062000174640100000000026401000000009004565b506200010b6040805190810160405280600881526020017f617472612e61647300000000000000000000000000000000000000000000000081525030602060405190810160405280600081525062000174640100000000026401000000009004565b506200016d6040805190810160405280601081526020017f617472612e6164732e70726963696e670000000000000000000000000000000081525030602060405190810160405280600081525062000174640100000000026401000000009004565b506200072c565b600080600060046000876040518082805190602001908083835b602083101515620001b557805182526020820191506020810190506020830392506200018e565b6001836020036101000a038019825116818451168082178552505050505050905001915050604051809103902060001916600019168152602001908152602001600020541415156200020657600080fd5b60016002610120604051908101604052808881526020014281526020013373ffffffffffffffffffffffffffffffffffffffff1681526020013373ffffffffffffffffffffffffffffffffffffffff16815260200160408051908101604052808881526020018973ffffffffffffffffffffffffffffffffffffffff16815250815260200160408051908101604052808881526020018973ffffffffffffffffffffffffffffffffffffffff16815250815260200142815260200160008152602001428152509080600181540180825580915050906001820390600052602060002090600b0201600090919290919091506000820151816000019080519060200190620003159291906200067d565b506020820151816001015560408201518160020160006101000a81548173ffffffffffffffffffffffffffffffffffffffff021916908373ffffffffffffffffffffffffffffffffffffffff16021790555060608201518160030160006101000a81548173ffffffffffffffffffffffffffffffffffffffff021916908373ffffffffffffffffffffffffffffffffffffffff1602179055506080820151816004016000820151816000019080519060200190620003d59291906200067d565b5060208201518160010160006101000a81548173ffffffffffffffffffffffffffffffffffffffff021916908373ffffffffffffffffffffffffffffffffffffffff160217905550505060a0820151816006016000820151816000019080519060200190620004469291906200067d565b5060208201518160010160006101000a81548173ffffffffffffffffffffffffffffffffffffffff021916908373ffffffffffffffffffffffffffffffffffffffff160217905550505060c0820151816008015560e0820151816009015561010082015181600a01555050039050600560003373ffffffffffffffffffffffffffffffffffffffff1673ffffffffffffffffffffffffffffffffffffffff1681526020019081526020016000208190806001815401808255809150509060018203906000526020600020016000909192909190915055507f98cafb7e74384b4a9b05287c7860571dd853f05e392d4252ed672f9720d97d24853360405180806020018373ffffffffffffffffffffffffffffffffffffffff1673ffffffffffffffffffffffffffffffffffffffff168152602001828103825284818151815260200191508051906020019080838360005b83811015620005b457808201518184015260208101905062000597565b50505050905090810190601f168015620005e25780820380516001836020036101000a031916815260200191505b50935050505060405180910390a18060046000876040518082805190602001908083835b6020831015156200062d578051825260208201915060208101905060208303925062000606565b6001836020036101000a0380198251168184511680821785525050505050509050019150506040518091039020600019166000191681526020019081526020016000208190559150509392505050565b828054600181600116156101000203166002900490600052602060002090601f016020900481019282601f10620006c057805160ff1916838001178555620006f1565b82800160010185558215620006f1579182015b82811115620006f0578251825591602001919060010190620006d3565b5b50905062000700919062000704565b5090565b6200072991905b80821115620007255760008160009055506001016200070b565b5090565b90565b614dd6806200073c6000396000f300608060405260043610610133576000357c0100000000000000000000000000000000000000000000000000000000900463ffffffff1680630ef678871461013857806315b1b55614610163578063288eea26146101e85780632d2569231461024957806335fee77d146102ce5780633f7b4aa11461032157806350ae410d146103825780635710791d146104735780635719715e146105a957806363f32f6314610829578063710475dc1461086a57806372478f1f146108e457806379ba5097146109295780638da5cb5b14610940578063a23b1f0b14610997578063a5be99dc14610a29578063ab433b1814610a54578063bf93113d14610aa4578063d00f0c4614610b10578063d4ee1d9014610b80578063d951dbb814610bd7578063da0f1bac14610c1c578063f2fde38b14610cb4575b600080fd5b34801561014457600080fd5b5061014d610cf7565b6040518082815260200191505060405180910390f35b34801561016f57600080fd5b506101a660048036038101908080359060200190929190803590602001908201803590602001919091929391929390505050610d71565b604051808273ffffffffffffffffffffffffffffffffffffffff1673ffffffffffffffffffffffffffffffffffffffff16815260200191505060405180910390f35b3480156101f457600080fd5b50610233600480360381019080803573ffffffffffffffffffffffffffffffffffffffff16906020019092919080359060200190929190505050610db8565b6040518082815260200191505060405180910390f35b34801561025557600080fd5b5061028c60048036038101908080359060200190929190803590602001908201803590602001919091929391929390505050610de8565b604051808273ffffffffffffffffffffffffffffffffffffffff1673ffffffffffffffffffffffffffffffffffffffff16815260200191505060405180910390f35b3480156102da57600080fd5b50610307600480360381019080803590602001908201803590602001919091929391929390505050610f25565b604051808215151515815260200191505060405180910390f35b34801561032d57600080fd5b5061036c600480360381019080803573ffffffffffffffffffffffffffffffffffffffff16906020019092919080359060200190929190505050610f9c565b6040518082815260200191505060405180910390f35b34801561038e57600080fd5b506103c560048036038101908080359060200190929190803590602001908201803590602001919091929391929390505050610fcc565b604051808373ffffffffffffffffffffffffffffffffffffffff1673ffffffffffffffffffffffffffffffffffffffff16815260200180602001828103825283818151815260200191508051906020019080838360005b8381101561043757808201518184015260208101905061041c565b50505050905090810190601f1680156104645780820380516001836020036101000a031916815260200191505b50935050505060405180910390f35b34801561047f57600080fd5b5061049e600480360381019080803590602001909291905050506117dd565b60405180806020018a81526020018973ffffffffffffffffffffffffffffffffffffffff1673ffffffffffffffffffffffffffffffffffffffff1681526020018873ffffffffffffffffffffffffffffffffffffffff1673ffffffffffffffffffffffffffffffffffffffff16815260200187815260200186815260200185815260200184815260200183815260200182810382528b818151815260200191508051906020019080838360005b8381101561056657808201518184015260208101905061054b565b50505050905090810190601f1680156105935780820380516001836020036101000a031916815260200191505b509a505050505050505050505060405180910390f35b3480156105b557600080fd5b5061061a60048036038101908080359060200190929190803590602001908201803590602001908080601f0160208091040260200160405190810160405280939291908181526020018383808284378201915050505050509192919290505050611b16565b60405180806020018c73ffffffffffffffffffffffffffffffffffffffff1673ffffffffffffffffffffffffffffffffffffffff168152602001806020018b81526020018a81526020018981526020018873ffffffffffffffffffffffffffffffffffffffff1673ffffffffffffffffffffffffffffffffffffffff168152602001806020018781526020018673ffffffffffffffffffffffffffffffffffffffff1673ffffffffffffffffffffffffffffffffffffffff16815260200185815260200184810384528f818151815260200191508051906020019080838360005b838110156107165780820151818401526020810190506106fb565b50505050905090810190601f1680156107435780820380516001836020036101000a031916815260200191505b5084810383528d818151815260200191508051906020019080838360005b8381101561077c578082015181840152602081019050610761565b50505050905090810190601f1680156107a95780820380516001836020036101000a031916815260200191505b50848103825288818151815260200191508051906020019080838360005b838110156107e25780820151818401526020810190506107c7565b50505050905090810190601f16801561080f5780820380516001836020036101000a031916815260200191505b509e50505050505050505050505050505060405180910390f35b34801561083557600080fd5b50610854600480360381019080803590602001909291905050506123ff565b6040518082815260200191505060405180910390f35b6108ce600480360381019080803590602001908201803590602001919091929391929390803573ffffffffffffffffffffffffffffffffffffffff1690602001909291908035906020019082018035906020019190919293919293905050506124f6565b6040518082815260200191505060405180910390f35b3480156108f057600080fd5b5061090f60048036038101908080359060200190929190505050612613565b604051808215151515815260200191505060405180910390f35b34801561093557600080fd5b5061093e612707565b005b34801561094c57600080fd5b506109556128e3565b604051808273ffffffffffffffffffffffffffffffffffffffff1673ffffffffffffffffffffffffffffffffffffffff16815260200191505060405180910390f35b610a0f6004803603810190808035906020019092919080359060200190820180359060200191909192939192939080359060200190929190803573ffffffffffffffffffffffffffffffffffffffff169060200190929190803590602001908201803590602001919091929391929390505050612908565b604051808215151515815260200191505060405180910390f35b348015610a3557600080fd5b50610a3e612cbe565b6040518082815260200191505060405180910390f35b610a8a60048036038101908080359060200190929190803590602001908201803590602001919091929391929390505050612ccb565b604051808215151515815260200191505060405180910390f35b348015610ab057600080fd5b50610ab961380b565b6040518080602001828103825283818151815260200191508051906020019060200280838360005b83811015610afc578082015181840152602081019050610ae1565b505050509050019250505060405180910390f35b610b6660048036038101908080359060200190929190803590602001908201803590602001919091929391929390803573ffffffffffffffffffffffffffffffffffffffff1690602001909291905050506138a0565b604051808215151515815260200191505060405180910390f35b348015610b8c57600080fd5b50610b95613c5b565b604051808273ffffffffffffffffffffffffffffffffffffffff1673ffffffffffffffffffffffffffffffffffffffff16815260200191505060405180910390f35b348015610be357600080fd5b50610c066004803603810190808035600019169060200190929190505050613c81565b6040518082815260200191505060405180910390f35b348015610c2857600080fd5b50610c5d600480360381019080803573ffffffffffffffffffffffffffffffffffffffff169060200190929190505050613c99565b6040518080602001828103825283818151815260200191508051906020019060200280838360005b83811015610ca0578082015181840152602081019050610c85565b505050509050019250505060405180910390f35b348015610cc057600080fd5b50610cf5600480360381019080803573ffffffffffffffffffffffffffffffffffffffff169060200190929190505050613d30565b005b60008060009054906101000a900473ffffffffffffffffffffffffffffffffffffffff1673ffffffffffffffffffffffffffffffffffffffff163373ffffffffffffffffffffffffffffffffffffffff16141515610d5457600080fd5b3073ffffffffffffffffffffffffffffffffffffffff1631905090565b6000610daf8484848080601f016020809104026020016040519081016040528093929190818152602001838380828437820191505050505050613dcf565b90509392505050565b600560205281600052604060002081815481101515610dd357fe5b90600052602060002001600091509150505481565b6000806000848490501115610e525760026004600086866040518083838082843782019150509250505060405180910390206000191660001916815260200190815260200160002054815481101515610e3d57fe5b90600052602060002090600b02019050610e72565b600285815481101515610e6157fe5b90600052602060002090600b020190505b8060020160009054906101000a900473ffffffffffffffffffffffffffffffffffffffff1673ffffffffffffffffffffffffffffffffffffffff168160030160009054906101000a900473ffffffffffffffffffffffffffffffffffffffff1673ffffffffffffffffffffffffffffffffffffffff161415610ef5576000610f1b565b8060030160009054906101000a900473ffffffffffffffffffffffffffffffffffffffff165b9150509392505050565b60008083839050118015610f3d575060648383905011155b1515610f4857600080fd5b600060046000858560405180838380828437820191505092505050604051809103902060001916600019168152602001908152602001600020541415610f915760009050610f96565b600190505b92915050565b600660205281600052604060002081815481101515610fb757fe5b90600052602060002001600091509150505481565b60006060610fd8614b1d565b60008585905011156113da576002600460008787604051808383808284378201915050925050506040518091039020600019166000191681526020019081526020016000205481548110151561102a57fe5b90600052602060002090600b02016101206040519081016040529081600082018054600181600116156101000203166002900480601f0160208091040260200160405190810160405280929190818152602001828054600181600116156101000203166002900480156110de5780601f106110b3576101008083540402835291602001916110de565b820191906000526020600020905b8154815290600101906020018083116110c157829003601f168201915b50505050508152602001600182015481526020016002820160009054906101000a900473ffffffffffffffffffffffffffffffffffffffff1673ffffffffffffffffffffffffffffffffffffffff1673ffffffffffffffffffffffffffffffffffffffff1681526020016003820160009054906101000a900473ffffffffffffffffffffffffffffffffffffffff1673ffffffffffffffffffffffffffffffffffffffff1673ffffffffffffffffffffffffffffffffffffffff16815260200160048201604080519081016040529081600082018054600181600116156101000203166002900480601f0160208091040260200160405190810160405280929190818152602001828054600181600116156101000203166002900480156112465780601f1061121b57610100808354040283529160200191611246565b820191906000526020600020905b81548152906001019060200180831161122957829003601f168201915b505050505081526020016001820160009054906101000a900473ffffffffffffffffffffffffffffffffffffffff1673ffffffffffffffffffffffffffffffffffffffff1673ffffffffffffffffffffffffffffffffffffffff1681525050815260200160068201604080519081016040529081600082018054600181600116156101000203166002900480601f0160208091040260200160405190810160405280929190818152602001828054600181600116156101000203166002900480156113525780601f1061132757610100808354040283529160200191611352565b820191906000526020600020905b81548152906001019060200180831161133557829003601f168201915b505050505081526020016001820160009054906101000a900473ffffffffffffffffffffffffffffffffffffffff1673ffffffffffffffffffffffffffffffffffffffff1673ffffffffffffffffffffffffffffffffffffffff168152505081526020016008820154815260200160098201548152602001600a820154815250509050611795565b6002868154811015156113e957fe5b90600052602060002090600b02016101206040519081016040529081600082018054600181600116156101000203166002900480601f01602080910402602001604051908101604052809291908181526020018280546001816001161561010002031660029004801561149d5780601f106114725761010080835404028352916020019161149d565b820191906000526020600020905b81548152906001019060200180831161148057829003601f168201915b50505050508152602001600182015481526020016002820160009054906101000a900473ffffffffffffffffffffffffffffffffffffffff1673ffffffffffffffffffffffffffffffffffffffff1673ffffffffffffffffffffffffffffffffffffffff1681526020016003820160009054906101000a900473ffffffffffffffffffffffffffffffffffffffff1673ffffffffffffffffffffffffffffffffffffffff1673ffffffffffffffffffffffffffffffffffffffff16815260200160048201604080519081016040529081600082018054600181600116156101000203166002900480601f0160208091040260200160405190810160405280929190818152602001828054600181600116156101000203166002900480156116055780601f106115da57610100808354040283529160200191611605565b820191906000526020600020905b8154815290600101906020018083116115e857829003601f168201915b505050505081526020016001820160009054906101000a900473ffffffffffffffffffffffffffffffffffffffff1673ffffffffffffffffffffffffffffffffffffffff1673ffffffffffffffffffffffffffffffffffffffff1681525050815260200160068201604080519081016040529081600082018054600181600116156101000203166002900480601f0160208091040260200160405190810160405280929190818152602001828054600181600116156101000203166002900480156117115780601f106116e657610100808354040283529160200191611711565b820191906000526020600020905b8154815290600101906020018083116116f457829003601f168201915b505050505081526020016001820160009054906101000a900473ffffffffffffffffffffffffffffffffffffffff1673ffffffffffffffffffffffffffffffffffffffff1673ffffffffffffffffffffffffffffffffffffffff168152505081526020016008820154815260200160098201548152602001600a8201548152505090505b428160200151106117ba578060800151602001518160800151600001518090506117d0565b8060a00151602001518160a00151600001518090505b9250925050935093915050565b6002818154811015156117ec57fe5b90600052602060002090600b0201600091509050806000018054600181600116156101000203166002900480601f0160208091040260200160405190810160405280929190818152602001828054600181600116156101000203166002900480156118985780601f1061186d57610100808354040283529160200191611898565b820191906000526020600020905b81548152906001019060200180831161187b57829003601f168201915b5050505050908060010154908060020160009054906101000a900473ffffffffffffffffffffffffffffffffffffffff16908060030160009054906101000a900473ffffffffffffffffffffffffffffffffffffffff169080600401604080519081016040529081600082018054600181600116156101000203166002900480601f0160208091040260200160405190810160405280929190818152602001828054600181600116156101000203166002900480156119985780601f1061196d57610100808354040283529160200191611998565b820191906000526020600020905b81548152906001019060200180831161197b57829003601f168201915b505050505081526020016001820160009054906101000a900473ffffffffffffffffffffffffffffffffffffffff1673ffffffffffffffffffffffffffffffffffffffff1673ffffffffffffffffffffffffffffffffffffffff16815250509080600601604080519081016040529081600082018054600181600116156101000203166002900480601f016020809104026020016040519081016040528092919081815260200182805460018160011615610100020316600290048015611aa05780601f10611a7557610100808354040283529160200191611aa0565b820191906000526020600020905b815481529060010190602001808311611a8357829003601f168201915b505050505081526020016001820160009054906101000a900473ffffffffffffffffffffffffffffffffffffffff1673ffffffffffffffffffffffffffffffffffffffff1673ffffffffffffffffffffffffffffffffffffffff16815250509080600801549080600901549080600a0154905089565b60606000606060008060008060606000806000611b31614b1d565b60008d511115611f77576002600460008f6040518082805190602001908083835b602083101515611b775780518252602082019150602081019050602083039250611b52565b6001836020036101000a03801982511681845116808217855250505050505090500191505060405180910390206000191660001916815260200190815260200160002054815481101515611bc757fe5b90600052602060002090600b02016101206040519081016040529081600082018054600181600116156101000203166002900480601f016020809104026020016040519081016040528092919081815260200182805460018160011615610100020316600290048015611c7b5780601f10611c5057610100808354040283529160200191611c7b565b820191906000526020600020905b815481529060010190602001808311611c5e57829003601f168201915b50505050508152602001600182015481526020016002820160009054906101000a900473ffffffffffffffffffffffffffffffffffffffff1673ffffffffffffffffffffffffffffffffffffffff1673ffffffffffffffffffffffffffffffffffffffff1681526020016003820160009054906101000a900473ffffffffffffffffffffffffffffffffffffffff1673ffffffffffffffffffffffffffffffffffffffff1673ffffffffffffffffffffffffffffffffffffffff16815260200160048201604080519081016040529081600082018054600181600116156101000203166002900480601f016020809104026020016040519081016040528092919081815260200182805460018160011615610100020316600290048015611de35780601f10611db857610100808354040283529160200191611de3565b820191906000526020600020905b815481529060010190602001808311611dc657829003601f168201915b505050505081526020016001820160009054906101000a900473ffffffffffffffffffffffffffffffffffffffff1673ffffffffffffffffffffffffffffffffffffffff1673ffffffffffffffffffffffffffffffffffffffff1681525050815260200160068201604080519081016040529081600082018054600181600116156101000203166002900480601f016020809104026020016040519081016040528092919081815260200182805460018160011615610100020316600290048015611eef5780601f10611ec457610100808354040283529160200191611eef565b820191906000526020600020905b815481529060010190602001808311611ed257829003601f168201915b505050505081526020016001820160009054906101000a900473ffffffffffffffffffffffffffffffffffffffff1673ffffffffffffffffffffffffffffffffffffffff1673ffffffffffffffffffffffffffffffffffffffff168152505081526020016008820154815260200160098201548152602001600a820154815250509050612332565b60028e815481101515611f8657fe5b90600052602060002090600b02016101206040519081016040529081600082018054600181600116156101000203166002900480601f01602080910402602001604051908101604052809291908181526020018280546001816001161561010002031660029004801561203a5780601f1061200f5761010080835404028352916020019161203a565b820191906000526020600020905b81548152906001019060200180831161201d57829003601f168201915b50505050508152602001600182015481526020016002820160009054906101000a900473ffffffffffffffffffffffffffffffffffffffff1673ffffffffffffffffffffffffffffffffffffffff1673ffffffffffffffffffffffffffffffffffffffff1681526020016003820160009054906101000a900473ffffffffffffffffffffffffffffffffffffffff1673ffffffffffffffffffffffffffffffffffffffff1673ffffffffffffffffffffffffffffffffffffffff16815260200160048201604080519081016040529081600082018054600181600116156101000203166002900480601f0160208091040260200160405190810160405280929190818152602001828054600181600116156101000203166002900480156121a25780601f10612177576101008083540402835291602001916121a2565b820191906000526020600020905b81548152906001019060200180831161218557829003601f168201915b505050505081526020016001820160009054906101000a900473ffffffffffffffffffffffffffffffffffffffff1673ffffffffffffffffffffffffffffffffffffffff1673ffffffffffffffffffffffffffffffffffffffff1681525050815260200160068201604080519081016040529081600082018054600181600116156101000203166002900480601f0160208091040260200160405190810160405280929190818152602001828054600181600116156101000203166002900480156122ae5780601f10612283576101008083540402835291602001916122ae565b820191906000526020600020905b81548152906001019060200180831161229157829003601f168201915b505050505081526020016001820160009054906101000a900473ffffffffffffffffffffffffffffffffffffffff1673ffffffffffffffffffffffffffffffffffffffff1673ffffffffffffffffffffffffffffffffffffffff168152505081526020016008820154815260200160098201548152602001600a8201548152505090505b80600001518160800151602001518260800151600001514284602001511061235f57836101000151612365565b83602001515b4285602001511061237a578460e00151612393565b61239260018660e0015161460690919063ffffffff16565b5b85602001518660a00151602001518760a0015160000151428960200151106123bc5760006123bf565b60015b89604001518a60c001518a9a508898508393508260ff1692509b509b509b509b509b509b509b509b509b509b509b50509295989b509295989b9093969950565b60008061244260006040805190810160405280601081526020017f617472612e6164732e70726963696e6700000000000000000000000000000000815250613dcf565b90508073ffffffffffffffffffffffffffffffffffffffff166363f32f63846040518263ffffffff167c010000000000000000000000000000000000000000000000000000000002815260040180828152602001915050602060405180830381600087803b1580156124b357600080fd5b505af11580156124c7573d6000803e3d6000fd5b505050506040513d60208110156124dd57600080fd5b8101908080519060200190929190505050915050919050565b60008060009054906101000a900473ffffffffffffffffffffffffffffffffffffffff1673ffffffffffffffffffffffffffffffffffffffff163373ffffffffffffffffffffffffffffffffffffffff16148061255b575061255860006123ff565b34145b151561256657600080fd5b60008686905011801561257d575060648686905011155b801561258e57506101008383905011155b151561259957600080fd5b61260886868080601f0160208091040260200160405190810160405280939291908181526020018383808284378201915050505050508585858080601f016020809104026020016040519081016040528093929190818152602001838380828437820191505050505050614622565b905095945050505050565b60008060009054906101000a900473ffffffffffffffffffffffffffffffffffffffff1673ffffffffffffffffffffffffffffffffffffffff163373ffffffffffffffffffffffffffffffffffffffff1614151561267057600080fd5b6000809054906101000a900473ffffffffffffffffffffffffffffffffffffffff1673ffffffffffffffffffffffffffffffffffffffff166108fc600084146126b957836126d2565b3073ffffffffffffffffffffffffffffffffffffffff16315b9081150290604051600060405180830381858888f193505050501580156126fd573d6000803e3d6000fd5b5060019050919050565b600160009054906101000a900473ffffffffffffffffffffffffffffffffffffffff1673ffffffffffffffffffffffffffffffffffffffff163373ffffffffffffffffffffffffffffffffffffffff1614151561276357600080fd5b7f8be0079c531659141344cd1fd0a4f28419497f9722a3daafe3b4186f6b6457e06000809054906101000a900473ffffffffffffffffffffffffffffffffffffffff16600160009054906101000a900473ffffffffffffffffffffffffffffffffffffffff16604051808373ffffffffffffffffffffffffffffffffffffffff1673ffffffffffffffffffffffffffffffffffffffff1681526020018273ffffffffffffffffffffffffffffffffffffffff1673ffffffffffffffffffffffffffffffffffffffff1681526020019250505060405180910390a1600160009054906101000a900473ffffffffffffffffffffffffffffffffffffffff166000806101000a81548173ffffffffffffffffffffffffffffffffffffffff021916908373ffffffffffffffffffffffffffffffffffffffff1602179055506000600160006101000a81548173ffffffffffffffffffffffffffffffffffffffff021916908373ffffffffffffffffffffffffffffffffffffffff160217905550565b6000809054906101000a900473ffffffffffffffffffffffffffffffffffffffff1681565b6000806000809054906101000a900473ffffffffffffffffffffffffffffffffffffffff1673ffffffffffffffffffffffffffffffffffffffff163373ffffffffffffffffffffffffffffffffffffffff16148061296e575061296b60016123ff565b34145b151561297957600080fd5b610100848490501115151561298d57600080fd5b60008888905011156129f4576002600460008a8a60405180838380828437820191505092505050604051809103902060001916600019168152602001908152602001600020548154811015156129df57fe5b90600052602060002090600b02019050612a14565b600289815481101515612a0357fe5b90600052602060002090600b020190505b3373ffffffffffffffffffffffffffffffffffffffff168160020160009054906101000a900473ffffffffffffffffffffffffffffffffffffffff1673ffffffffffffffffffffffffffffffffffffffff16141515612a7257600080fd5b4281600101541015612b4657806006018160040160008201816000019080546001816001161561010002031660029004612aad929190614ba2565b506001820160009054906101000a900473ffffffffffffffffffffffffffffffffffffffff168160010160006101000a81548173ffffffffffffffffffffffffffffffffffffffff021916908373ffffffffffffffffffffffffffffffffffffffff160217905550905050806001015481600a0181905550612b3d6001826009015461460690919063ffffffff16565b81600901819055505b612b59864261460690919063ffffffff16565b8160010181905550848160060160010160006101000a81548173ffffffffffffffffffffffffffffffffffffffff021916908373ffffffffffffffffffffffffffffffffffffffff1602179055508383826006016000019190612bbd929190614c29565b507fd9259f20e97fc7f3a9a097b4cdff953ba09e4e0fb7fc0aae8064429f8111e721816000013360405180806020018373ffffffffffffffffffffffffffffffffffffffff1673ffffffffffffffffffffffffffffffffffffffff168152602001828103825284818154600181600116156101000203166002900481526020019150805460018160011615610100020316600290048015612c9f5780601f10612c7457610100808354040283529160200191612c9f565b820191906000526020600020905b815481529060010190602001808311612c8257829003601f168201915b5050935050505060405180910390a16001915050979650505050505050565b6000600280549050905090565b60008060008060008060008060009054906101000a900473ffffffffffffffffffffffffffffffffffffffff1673ffffffffffffffffffffffffffffffffffffffff163373ffffffffffffffffffffffffffffffffffffffff161480612d395750612d3660036123ff565b34145b1515612d4457600080fd5b8994506000898990501115612de857600460008a8a604051808383808284378201915050925050506040518091039020600019166000191681526020019081526020016000205494506002600460008b8b6040518083838082843782019150509250505060405180910390206000191660001916815260200190815260200160002054815481101515612dd357fe5b90600052602060002090600b02019550612e08565b600285815481101515612df757fe5b90600052602060002090600b020195505b3373ffffffffffffffffffffffffffffffffffffffff168660030160009054906101000a900473ffffffffffffffffffffffffffffffffffffffff1673ffffffffffffffffffffffffffffffffffffffff16141515612e6657600080fd5b600560008760020160009054906101000a900473ffffffffffffffffffffffffffffffffffffffff1673ffffffffffffffffffffffffffffffffffffffff1673ffffffffffffffffffffffffffffffffffffffff1681526020019081526020016000206001600560008960020160009054906101000a900473ffffffffffffffffffffffffffffffffffffffff1673ffffffffffffffffffffffffffffffffffffffff1673ffffffffffffffffffffffffffffffffffffffff1681526020019081526020016000208054905003815481101515612f3f57fe5b90600052602060002001549350600092505b600560008760020160009054906101000a900473ffffffffffffffffffffffffffffffffffffffff1673ffffffffffffffffffffffffffffffffffffffff1673ffffffffffffffffffffffffffffffffffffffff168152602001908152602001600020805490508310156130ce5789600560008860020160009054906101000a900473ffffffffffffffffffffffffffffffffffffffff1673ffffffffffffffffffffffffffffffffffffffff1673ffffffffffffffffffffffffffffffffffffffff1681526020019081526020016000208481548110151561303057fe5b906000526020600020015414156130c15783600560008860020160009054906101000a900473ffffffffffffffffffffffffffffffffffffffff1673ffffffffffffffffffffffffffffffffffffffff1673ffffffffffffffffffffffffffffffffffffffff168152602001908152602001600020848154811015156130b257fe5b90600052602060002001819055505b8280600101935050612f51565b600560008760020160009054906101000a900473ffffffffffffffffffffffffffffffffffffffff1673ffffffffffffffffffffffffffffffffffffffff1673ffffffffffffffffffffffffffffffffffffffff1681526020019081526020016000206001600560008960020160009054906101000a900473ffffffffffffffffffffffffffffffffffffffff1673ffffffffffffffffffffffffffffffffffffffff1673ffffffffffffffffffffffffffffffffffffffff16815260200190815260200160002080549050038154811015156131a757fe5b9060005260206000200160009055600560008760020160009054906101000a900473ffffffffffffffffffffffffffffffffffffffff1673ffffffffffffffffffffffffffffffffffffffff1673ffffffffffffffffffffffffffffffffffffffff16815260200190815260200160002080548091906001900361322b9190614ca9565b508560030160009054906101000a900473ffffffffffffffffffffffffffffffffffffffff168660020160006101000a81548173ffffffffffffffffffffffffffffffffffffffff021916908373ffffffffffffffffffffffffffffffffffffffff160217905550600560008760020160009054906101000a900473ffffffffffffffffffffffffffffffffffffffff1673ffffffffffffffffffffffffffffffffffffffff1673ffffffffffffffffffffffffffffffffffffffff1681526020019081526020016000208a9080600181540180825580915050906001820390600052602060002001600090919290919091505550600660008760020160009054906101000a900473ffffffffffffffffffffffffffffffffffffffff1673ffffffffffffffffffffffffffffffffffffffff1673ffffffffffffffffffffffffffffffffffffffff1681526020019081526020016000206001600660008960020160009054906101000a900473ffffffffffffffffffffffffffffffffffffffff1673ffffffffffffffffffffffffffffffffffffffff1673ffffffffffffffffffffffffffffffffffffffff16815260200190815260200160002080549050038154811015156133f957fe5b90600052602060002001549150600090505b600660008760020160009054906101000a900473ffffffffffffffffffffffffffffffffffffffff1673ffffffffffffffffffffffffffffffffffffffff1673ffffffffffffffffffffffffffffffffffffffff168152602001908152602001600020805490508110156135885789600660008860020160009054906101000a900473ffffffffffffffffffffffffffffffffffffffff1673ffffffffffffffffffffffffffffffffffffffff1673ffffffffffffffffffffffffffffffffffffffff168152602001908152602001600020828154811015156134ea57fe5b9060005260206000200154141561357b5781600660008860020160009054906101000a900473ffffffffffffffffffffffffffffffffffffffff1673ffffffffffffffffffffffffffffffffffffffff1673ffffffffffffffffffffffffffffffffffffffff1681526020019081526020016000208281548110151561356c57fe5b90600052602060002001819055505b808060010191505061340b565b600660008760020160009054906101000a900473ffffffffffffffffffffffffffffffffffffffff1673ffffffffffffffffffffffffffffffffffffffff1673ffffffffffffffffffffffffffffffffffffffff1681526020019081526020016000206001600660008960020160009054906101000a900473ffffffffffffffffffffffffffffffffffffffff1673ffffffffffffffffffffffffffffffffffffffff1673ffffffffffffffffffffffffffffffffffffffff168152602001908152602001600020805490500381548110151561366157fe5b9060005260206000200160009055600660008760020160009054906101000a900473ffffffffffffffffffffffffffffffffffffffff1673ffffffffffffffffffffffffffffffffffffffff1673ffffffffffffffffffffffffffffffffffffffff1681526020019081526020016000208054809190600190036136e59190614ca9565b507f780d8108bb9b1b7aee5f31f6608e32ad2851b5fd6d62e0b7f496ef354aaace7c866000018760020160009054906101000a900473ffffffffffffffffffffffffffffffffffffffff1660405180806020018373ffffffffffffffffffffffffffffffffffffffff1673ffffffffffffffffffffffffffffffffffffffff1681526020018281038252848181546001816001161561010002031660029004815260200191508054600181600116156101000203166002900480156137eb5780601f106137c0576101008083540402835291602001916137eb565b820191906000526020600020905b8154815290600101906020018083116137ce57829003601f168201915b5050935050505060405180910390a1600196505050505050509392505050565b6060600660003373ffffffffffffffffffffffffffffffffffffffff1673ffffffffffffffffffffffffffffffffffffffff16815260200190815260200160002080548060200260200160405190810160405280929190818152602001828054801561389657602002820191906000526020600020905b815481526020019060010190808311613882575b5050505050905090565b60008060008060009054906101000a900473ffffffffffffffffffffffffffffffffffffffff1673ffffffffffffffffffffffffffffffffffffffff163373ffffffffffffffffffffffffffffffffffffffff161480613908575061390560026123ff565b34145b151561391357600080fd5b86905060008686905011156139b75760046000878760405180838380828437820191505092505050604051809103902060001916600019168152602001908152602001600020549050600260046000888860405180838380828437820191505092505050604051809103902060001916600019168152602001908152602001600020548154811015156139a257fe5b90600052602060002090600b020191506139d7565b6002818154811015156139c657fe5b90600052602060002090600b020191505b3373ffffffffffffffffffffffffffffffffffffffff168260020160009054906101000a900473ffffffffffffffffffffffffffffffffffffffff1673ffffffffffffffffffffffffffffffffffffffff16141515613a3557600080fd5b838260030160006101000a81548173ffffffffffffffffffffffffffffffffffffffff021916908373ffffffffffffffffffffffffffffffffffffffff160217905550600660008360030160009054906101000a900473ffffffffffffffffffffffffffffffffffffffff1673ffffffffffffffffffffffffffffffffffffffff1673ffffffffffffffffffffffffffffffffffffffff1681526020019081526020016000208790806001815401808255809150509060018203906000526020600020016000909192909190915055507f4b2185bad34eb46c0a101e6fe10bf6c1ccb662d34671d7317512e5afc00c604a82600001338460030160009054906101000a900473ffffffffffffffffffffffffffffffffffffffff1660405180806020018473ffffffffffffffffffffffffffffffffffffffff1673ffffffffffffffffffffffffffffffffffffffff1681526020018373ffffffffffffffffffffffffffffffffffffffff1673ffffffffffffffffffffffffffffffffffffffff168152602001828103825285818154600181600116156101000203166002900481526020019150805460018160011615610100020316600290048015613c3d5780601f10613c1257610100808354040283529160200191613c3d565b820191906000526020600020905b815481529060010190602001808311613c2057829003601f168201915b505094505050505060405180910390a1600192505050949350505050565b600160009054906101000a900473ffffffffffffffffffffffffffffffffffffffff1681565b60046020528060005260406000206000915090505481565b6060600560008373ffffffffffffffffffffffffffffffffffffffff1673ffffffffffffffffffffffffffffffffffffffff168152602001908152602001600020805480602002602001604051908101604052809291908181526020018280548015613d2457602002820191906000526020600020905b815481526020019060010190808311613d10575b50505050509050919050565b6000809054906101000a900473ffffffffffffffffffffffffffffffffffffffff1673ffffffffffffffffffffffffffffffffffffffff163373ffffffffffffffffffffffffffffffffffffffff16141515613d8b57600080fd5b80600160006101000a81548173ffffffffffffffffffffffffffffffffffffffff021916908373ffffffffffffffffffffffffffffffffffffffff16021790555050565b6000613dd9614b1d565b60008351111561421f57600260046000856040518082805190602001908083835b602083101515613e1f5780518252602082019150602081019050602083039250613dfa565b6001836020036101000a03801982511681845116808217855250505050505090500191505060405180910390206000191660001916815260200190815260200160002054815481101515613e6f57fe5b90600052602060002090600b02016101206040519081016040529081600082018054600181600116156101000203166002900480601f016020809104026020016040519081016040528092919081815260200182805460018160011615610100020316600290048015613f235780601f10613ef857610100808354040283529160200191613f23565b820191906000526020600020905b815481529060010190602001808311613f0657829003601f168201915b50505050508152602001600182015481526020016002820160009054906101000a900473ffffffffffffffffffffffffffffffffffffffff1673ffffffffffffffffffffffffffffffffffffffff1673ffffffffffffffffffffffffffffffffffffffff1681526020016003820160009054906101000a900473ffffffffffffffffffffffffffffffffffffffff1673ffffffffffffffffffffffffffffffffffffffff1673ffffffffffffffffffffffffffffffffffffffff16815260200160048201604080519081016040529081600082018054600181600116156101000203166002900480601f01602080910402602001604051908101604052809291908181526020018280546001816001161561010002031660029004801561408b5780601f106140605761010080835404028352916020019161408b565b820191906000526020600020905b81548152906001019060200180831161406e57829003601f168201915b505050505081526020016001820160009054906101000a900473ffffffffffffffffffffffffffffffffffffffff1673ffffffffffffffffffffffffffffffffffffffff1673ffffffffffffffffffffffffffffffffffffffff1681525050815260200160068201604080519081016040529081600082018054600181600116156101000203166002900480601f0160208091040260200160405190810160405280929190818152602001828054600181600116156101000203166002900480156141975780601f1061416c57610100808354040283529160200191614197565b820191906000526020600020905b81548152906001019060200180831161417a57829003601f168201915b505050505081526020016001820160009054906101000a900473ffffffffffffffffffffffffffffffffffffffff1673ffffffffffffffffffffffffffffffffffffffff1673ffffffffffffffffffffffffffffffffffffffff168152505081526020016008820154815260200160098201548152602001600a8201548152505090506145da565b60028481548110151561422e57fe5b90600052602060002090600b02016101206040519081016040529081600082018054600181600116156101000203166002900480601f0160208091040260200160405190810160405280929190818152602001828054600181600116156101000203166002900480156142e25780601f106142b7576101008083540402835291602001916142e2565b820191906000526020600020905b8154815290600101906020018083116142c557829003601f168201915b50505050508152602001600182015481526020016002820160009054906101000a900473ffffffffffffffffffffffffffffffffffffffff1673ffffffffffffffffffffffffffffffffffffffff1673ffffffffffffffffffffffffffffffffffffffff1681526020016003820160009054906101000a900473ffffffffffffffffffffffffffffffffffffffff1673ffffffffffffffffffffffffffffffffffffffff1673ffffffffffffffffffffffffffffffffffffffff16815260200160048201604080519081016040529081600082018054600181600116156101000203166002900480601f01602080910402602001604051908101604052809291908181526020018280546001816001161561010002031660029004801561444a5780601f1061441f5761010080835404028352916020019161444a565b820191906000526020600020905b81548152906001019060200180831161442d57829003601f168201915b505050505081526020016001820160009054906101000a900473ffffffffffffffffffffffffffffffffffffffff1673ffffffffffffffffffffffffffffffffffffffff1673ffffffffffffffffffffffffffffffffffffffff1681525050815260200160068201604080519081016040529081600082018054600181600116156101000203166002900480601f0160208091040260200160405190810160405280929190818152602001828054600181600116156101000203166002900480156145565780601f1061452b57610100808354040283529160200191614556565b820191906000526020600020905b81548152906001019060200180831161453957829003601f168201915b505050505081526020016001820160009054906101000a900473ffffffffffffffffffffffffffffffffffffffff1673ffffffffffffffffffffffffffffffffffffffff1673ffffffffffffffffffffffffffffffffffffffff168152505081526020016008820154815260200160098201548152602001600a8201548152505090505b428160200151106145f3578060800151602001516145fd565b8060a00151602001515b91505092915050565b6000818301905082811015151561461c57600080fd5b92915050565b600080600060046000876040518082805190602001908083835b602083101515614661578051825260208201915060208101905060208303925061463c565b6001836020036101000a038019825116818451168082178552505050505050905001915050604051809103902060001916600019168152602001908152602001600020541415156146b157600080fd5b60016002610120604051908101604052808881526020014281526020013373ffffffffffffffffffffffffffffffffffffffff1681526020013373ffffffffffffffffffffffffffffffffffffffff16815260200160408051908101604052808881526020018973ffffffffffffffffffffffffffffffffffffffff16815250815260200160408051908101604052808881526020018973ffffffffffffffffffffffffffffffffffffffff16815250815260200142815260200160008152602001428152509080600181540180825580915050906001820390600052602060002090600b02016000909192909190915060008201518160000190805190602001906147be929190614cd5565b506020820151816001015560408201518160020160006101000a81548173ffffffffffffffffffffffffffffffffffffffff021916908373ffffffffffffffffffffffffffffffffffffffff16021790555060608201518160030160006101000a81548173ffffffffffffffffffffffffffffffffffffffff021916908373ffffffffffffffffffffffffffffffffffffffff160217905550608082015181600401600082015181600001908051906020019061487c929190614cd5565b5060208201518160010160006101000a81548173ffffffffffffffffffffffffffffffffffffffff021916908373ffffffffffffffffffffffffffffffffffffffff160217905550505060a08201518160060160008201518160000190805190602001906148eb929190614cd5565b5060208201518160010160006101000a81548173ffffffffffffffffffffffffffffffffffffffff021916908373ffffffffffffffffffffffffffffffffffffffff160217905550505060c0820151816008015560e0820151816009015561010082015181600a01555050039050600560003373ffffffffffffffffffffffffffffffffffffffff1673ffffffffffffffffffffffffffffffffffffffff1681526020019081526020016000208190806001815401808255809150509060018203906000526020600020016000909192909190915055507f98cafb7e74384b4a9b05287c7860571dd853f05e392d4252ed672f9720d97d24853360405180806020018373ffffffffffffffffffffffffffffffffffffffff1673ffffffffffffffffffffffffffffffffffffffff168152602001828103825284818151815260200191508051906020019080838360005b83811015614a57578082015181840152602081019050614a3c565b50505050905090810190601f168015614a845780820380516001836020036101000a031916815260200191505b50935050505060405180910390a18060046000876040518082805190602001908083835b602083101515614acd5780518252602082019150602081019050602083039250614aa8565b6001836020036101000a0380198251168184511680821785525050505050509050019150506040518091039020600019166000191681526020019081526020016000208190559150509392505050565b610160604051908101604052806060815260200160008152602001600073ffffffffffffffffffffffffffffffffffffffff168152602001600073ffffffffffffffffffffffffffffffffffffffff168152602001614b7a614d55565b8152602001614b87614d55565b81526020016000815260200160008152602001600081525090565b828054600181600116156101000203166002900490600052602060002090601f016020900481019282601f10614bdb5780548555614c18565b82800160010185558215614c1857600052602060002091601f016020900482015b82811115614c17578254825591600101919060010190614bfc565b5b509050614c259190614d85565b5090565b828054600181600116156101000203166002900490600052602060002090601f016020900481019282601f10614c6a57803560ff1916838001178555614c98565b82800160010185558215614c98579182015b82811115614c97578235825591602001919060010190614c7c565b5b509050614ca59190614d85565b5090565b815481835581811115614cd057818360005260206000209182019101614ccf9190614d85565b5b505050565b828054600181600116156101000203166002900490600052602060002090601f016020900481019282601f10614d1657805160ff1916838001178555614d44565b82800160010185558215614d44579182015b82811115614d43578251825591602001919060010190614d28565b5b509050614d519190614d85565b5090565b604080519081016040528060608152602001600073ffffffffffffffffffffffffffffffffffffffff1681525090565b614da791905b80821115614da3576000816000905550600101614d8b565b5090565b905600a165627a7a72305820af599ab02d1b3e0df6a5818e2ccc2fff7a878391feacff7f04cb70e17c414cd60029",
  "source": "pragma solidity^0.4.20;\n/*\n    Company: Atra Blockchain Services LLC\n    Website: atra.io\n    Author: Dillon Vincent\n    Title: Address Delegate Service (ADS)\n    Documentation: atra.readthedocs.io\n    Date: 4/4/18\n*/\ninterface IADS {\n    function Create(string name, address currentAddress, string currentAbiLocation) external payable returns(uint newRouteId);\n\n    function ScheduleUpdate(uint _id, string _name, uint _release, address _addr, string _abiUrl) external payable returns(bool success);\n\n    function Get(uint _id, string _name) public view returns(string name, address addr, string abiUrl, uint released, uint version, uint update, address updateAddr, string updateAbiUrl, uint active, address owner, uint created);\n\n    function GetRouteIdsForOwner(address _owner) external view returns(uint[] routeIds);\n\n    function GetAddress(uint _id, string _name) external view returns(address addr);\n\n    function GetAddressAndAbi(uint _id, string _name) external view returns(address addr, string abiUrl);\n\n    function RoutesLength() external view returns(uint length);\n\n    function NameTaken(string _name) external view returns(bool taken);\n\n    function GetPendingRouteTransfer(uint _id, string _name) external view returns(address addr);\n\n    function GetPendingTransfersForSender() external view returns(uint[] routeIds);\n\n    function TransferRouteOwnership(uint _id, string _name, address _owner) external payable returns(bool success);\n\n    function AcceptRouteOwnership(uint _id, string _name) external payable returns(bool success);\n}\n\ninterface IPricing {\n    function Price(uint _option) external view returns (uint price);\n}\ncontract AtraOwners {\n    address public owner;\n    address public newOwner;\n\n    event OwnershipTransferred(address from, address to);\n\n    constructor() public {\n        owner = msg.sender;\n    }\n\n    modifier isOwner {\n        require(msg.sender == owner);\n        _;\n    }\n\n    function transferOwnership(address _newOwner) public isOwner {\n        newOwner = _newOwner;\n    }\n    function acceptOwnership() public {\n        require(msg.sender == newOwner);\n        emit OwnershipTransferred(owner, newOwner);\n        owner = newOwner;\n        newOwner = address(0);\n    }\n}\nlibrary SafeMath {\n    function add(uint a, uint b) internal pure returns (uint c) {\n        c = a + b;\n        require(c >= a);\n    }\n}\n\ncontract ADS is IADS, AtraOwners {\n    using SafeMath for uint;\n\n    struct RouteData {\n        string abiLocation; // url pointing to the abi json\n        address contractAddress; // address pointing to an ethereum contract\n    }\n\n    struct Route {\n        string name; //this will never change, used as a key\n        uint updateRelease; // the epoch time when the updated contract data is released\n        address owner; // address that owns/created and can modify route\n        address newOwner; // used to transfer ownership\n        RouteData current; // current contract data\n        RouteData update; // scheduled update contract data\n        uint created; //time created\n        uint version; // auto increment\n        uint released; //when the last release was\n    }\n\n    // Declare Storage\n    Route[] public Routes;\n    bool pendingReset = false;\n    mapping(bytes32 => uint) public ContractNamesToRoutes; // (keccak256('Route Name') => routeId)\n    mapping(address => uint[]) public OwnersToRoutes;\n    mapping(address => uint[]) public OwnersToPendingTransfersByRouteId;\n\n    //Events\n    event RouteCreated(string name, address owner);\n    event UpdateScheduled(string name, address owner);\n    event TransferOwnership(string name, address owner, address newOwner);\n    event AcceptOwnership(string name, address newOwner);\n\n    //Constructor\n    constructor() public {\n        // Create padding in Routes array to be able to check for unique name in list by returning 0 for no match\n        _Create('',address(this),'');\n        _Create('atra.ads',address(this),'');\n        _Create('atra.ads.pricing',address(this),'');\n    }\n\n    function Get(uint _id, string _name) public view returns(\n            string name,\n            address addr,\n            string abiUrl,\n            uint released,\n            uint version,\n            uint update,\n            address updateAddr,\n            string updateAbiUrl,\n            uint active,\n            address owner,\n            uint created\n        ) {\n        Route memory route;\n        if(bytes(_name).length > 0){\n            route = Routes[ContractNamesToRoutes[keccak256(_name)]];\n        }else{\n            route = Routes[_id];\n        }\n        return (\n            route.name, //name\n            route.current.contractAddress, //addr\n            route.current.abiLocation, //abi\n            // if update is active the released date is when it went live, else it's the release date\n            route.updateRelease < now ? route.updateRelease : route.released, //released\n            //check is next contract is active, if so it's a different version add 1, else return normal version\n            route.updateRelease < now ? route.version.add(1) : route.version, //version\n            // active position  will be used to determine what address to use by the client 0=current 1=next\n            route.updateRelease, //update\n            route.update.contractAddress, //updateAddr\n            route.update.abiLocation, //updateAbi\n            route.updateRelease < now ? 1 : 0, //active\n            route.owner, //owner\n            route.created //created\n            );\n    }\n\n    function GetRouteIdsForOwner(address _owner) external view returns(uint[] routeIds) {\n        return OwnersToRoutes[_owner];\n    }\n    function GetAddress(uint _id, string _name) external view returns(address addr) {\n      return _GetAddress(_id,_name);\n    }\n    function _GetAddress(uint _id, string _name) private view returns(address addr) {\n        Route memory route;\n        if(bytes(_name).length > 0){\n            route = Routes[ContractNamesToRoutes[keccak256(_name)]];\n        }else{\n            route = Routes[_id];\n        }\n        return route.updateRelease < now ? route.update.contractAddress : route.current.contractAddress;\n    }\n\n    function GetAddressAndAbi(uint _id, string _name) external view returns(address addr, string abiUrl) {\n        Route memory route;\n        if(bytes(_name).length > 0){\n            route = Routes[ContractNamesToRoutes[keccak256(_name)]];\n        }else{\n            route = Routes[_id];\n        }\n        return route.updateRelease < now ? (route.update.contractAddress, route.update.abiLocation) : (route.current.contractAddress, route.current.abiLocation);\n    }\n\n    function RoutesLength() external view returns(uint length){\n        return Routes.length;\n    }\n\n    function NameTaken(string _name) external view returns(bool) {\n        require(bytes(_name).length > 0 && bytes(_name).length <= 100);\n        if(ContractNamesToRoutes[keccak256(_name)] == 0){\n            return false;//name is not taken\n        }else{\n            return true;\n        }\n    }\n    function Create(string _name, address _addr, string _abiUrl) external payable returns(uint id) {\n      require(msg.sender == owner || msg.value == Price(0));\n      // validate inputs\n      require(bytes(_name).length > 0 && bytes(_name).length <= 100 && bytes(_abiUrl).length <= 256);\n      return _Create(_name, _addr, _abiUrl);\n    }\n    function _Create(string _name, address _addr, string _abiUrl) private returns(uint id) {\n        // ** Below is where the padding route object comes into play. ** //\n        // ** A mapping will return 0 if there is a hit and the array index is 0 AND if there is nothing found ** //\n        // ** To pervent this we add padding to the routes list by creating a blank record and requiring _name to have a length > 0 ** //\n        // ** The state below now will only return 0 if there isn't a route found ** //\n        require(ContractNamesToRoutes[keccak256(_name)] == 0);\n        uint routeId = Routes.push(Route(_name, now, msg.sender, msg.sender, RouteData(_abiUrl, _addr), RouteData(_abiUrl, _addr),now, 0, now)) -1;\n        OwnersToRoutes[msg.sender].push(routeId);\n        emit RouteCreated(_name, msg.sender);\n        return ContractNamesToRoutes[keccak256(_name)] = routeId;\n    }\n\n    function ScheduleUpdate(uint _id, string _name, uint _release, address _addr, string _abiUrl) external payable returns(bool success) {\n        require(msg.sender == owner || msg.value == Price(1));\n\n        //dont require name validation since we aren't storing it\n        require(bytes(_abiUrl).length <= 256);\n        Route storage route;\n        if(bytes(_name).length > 0){\n            route = Routes[ContractNamesToRoutes[keccak256(_name)]];\n        }else{\n            route = Routes[_id];\n        }\n\n        require(route.owner == msg.sender); //require sender to be owner to update\n\n        //if Next Contract Data is active do not overwrite Next data, move it to Current and increment the version\n        if(route.updateRelease < now){\n            route.current = route.update;\n            route.released = route.updateRelease;\n            route.version = route.version.add(1);\n        }\n\n        route.updateRelease = now.add(_release);// if updateRelease is zero update will be live now\n        route.update.contractAddress = _addr; // update next address\n        route.update.abiLocation = _abiUrl; // update next abi location\n        emit UpdateScheduled(route.name, msg.sender);\n        return true; // return success\n    }\n\n    function GetPendingRouteTransfer(uint _id, string _name) external view returns(address addr) {\n        Route storage route;\n        if(bytes(_name).length > 0){\n            route = Routes[ContractNamesToRoutes[keccak256(_name)]];\n        }else{\n            route = Routes[_id];\n        }\n        return route.newOwner != route.owner ? route.newOwner : address(0);\n    }\n\n    function GetPendingTransfersForSender() external view returns(uint[] routeIds) {\n        return OwnersToPendingTransfersByRouteId[msg.sender];\n    }\n\n    function TransferRouteOwnership(uint _id, string _name, address _owner) external payable returns(bool success) {\n        require(msg.sender == owner || msg.value == Price(2));\n        Route storage route;\n        uint id = _id;\n        if(bytes(_name).length > 0){\n            id = ContractNamesToRoutes[keccak256(_name)];\n            route = Routes[ContractNamesToRoutes[keccak256(_name)]];\n        }else{\n            route = Routes[id];\n        }\n        require(route.owner == msg.sender); //require sender to be owner to transfer ownership\n        route.newOwner = _owner; // set new owner\n        OwnersToPendingTransfersByRouteId[route.newOwner].push(_id);\n        emit TransferOwnership(route.name, msg.sender, route.newOwner);\n        return true; // return success\n    }\n\n    function AcceptRouteOwnership(uint _id, string _name) external payable returns(bool success) {\n        require(msg.sender == owner || msg.value == Price(3));\n        Route storage route;\n        uint id = _id;\n        if(bytes(_name).length > 0){\n            id = ContractNamesToRoutes[keccak256(_name)];\n            route = Routes[ContractNamesToRoutes[keccak256(_name)]];\n        }else{\n            route = Routes[id];\n        }\n        require(route.newOwner == msg.sender); //require sender to be newOwner to accecpt ownership\n\n        //delete route lookup for pervious owner\n        //get last routeid in array\n        uint keepRouteId = OwnersToRoutes[route.owner][OwnersToRoutes[route.owner].length - 1];\n        //replace routeId marked for delete\n        for(uint x = 0; x < OwnersToRoutes[route.owner].length; x++){\n            if(OwnersToRoutes[route.owner][x] == _id){\n                OwnersToRoutes[route.owner][x] = keepRouteId;\n            }\n        }\n        //delete last position\n        delete OwnersToRoutes[route.owner][OwnersToRoutes[route.owner].length - 1];\n        //adjust array length\n        OwnersToRoutes[route.owner].length--;\n\n         // Add route to new owner\n        route.owner = route.newOwner; // transfer ownership\n        OwnersToRoutes[route.owner].push(_id); // add lookup\n\n\n        // remove route id from PendingRouteOwnershipTransfer for the new owner\n        uint keepPendingRouteId = OwnersToPendingTransfersByRouteId[route.owner][OwnersToPendingTransfersByRouteId[route.owner].length - 1];\n        //replace routeId marked for delete\n        for(uint y = 0; y < OwnersToPendingTransfersByRouteId[route.owner].length; y++){\n            if(OwnersToPendingTransfersByRouteId[route.owner][y] == _id){\n                OwnersToPendingTransfersByRouteId[route.owner][y] = keepPendingRouteId;\n            }\n        }\n        //delete last position\n        delete OwnersToPendingTransfersByRouteId[route.owner][OwnersToPendingTransfersByRouteId[route.owner].length - 1];\n        //adjust array length\n        OwnersToPendingTransfersByRouteId[route.owner].length--;\n\n\n        emit AcceptOwnership(route.name, route.owner);\n        return true; // return success\n    }\n\n    function Price(uint _option) public view returns(uint price) {\n        //Options: 0=create,1=update,2=transfer,3=accepttransfer\n        IPricing pricingContract = IPricing(_GetAddress(0,'atra.ads.pricing'));\n        return pricingContract.Price(_option);\n    }\n\n    function Widthdraw(uint _amount) public isOwner returns(bool success) {\n        // if amount is zero take the whole balance else use amount\n        owner.transfer(_amount == 0 ? address(this).balance : _amount);\n        return true;\n    }\n\n    function Balance() public view isOwner returns(uint balance) {\n        return address(this).balance;\n    }\n\n}\n",
  "sourcePath": "/Users/dvincent/dapps/truffle/atra-truffle/contracts/ADS.sol",
  "compiler": {
    "name": "solc",
    "version": "0.4.24+commit.e67f0147.Emscripten.clang"
  },
  "schemaVersion": "2.0.0",
  "updatedAt": "2018-06-11T21:54:21.791Z"
}