{
  "contractName": "AtraOwners",
  "abi": [
    {
      "constant": true,
      "inputs": [],
      "name": "owner",
      "outputs": [
        {
          "name": "",
          "type": "address"
        }
      ],
      "payable": false,
      "stateMutability": "view",
      "type": "function"
    },
    {
      "constant": true,
      "inputs": [],
      "name": "newOwner",
      "outputs": [
        {
          "name": "",
          "type": "address"
        }
      ],
      "payable": false,
      "stateMutability": "view",
      "type": "function"
    },
    {
      "inputs": [],
      "payable": false,
      "stateMutability": "nonpayable",
      "type": "constructor"
    },
    {
      "anonymous": false,
      "inputs": [
        {
          "indexed": false,
          "name": "from",
          "type": "address"
        },
        {
          "indexed": false,
          "name": "to",
          "type": "address"
        }
      ],
      "name": "OwnershipTransferred",
      "type": "event"
    },
    {
      "constant": false,
      "inputs": [
        {
          "name": "_newOwner",
          "type": "address"
        }
      ],
      "name": "transferOwnership",
      "outputs": [],
      "payable": false,
      "stateMutability": "nonpayable",
      "type": "function"
    },
    {
      "constant": false,
      "inputs": [],
      "name": "acceptOwnership",
      "outputs": [],
      "payable": false,
      "stateMutability": "nonpayable",
      "type": "function"
    }
  ],
  "bytecode": "0x608060405234801561001057600080fd5b50336000806101000a81548173ffffffffffffffffffffffffffffffffffffffff021916908373ffffffffffffffffffffffffffffffffffffffff160217905550610461806100606000396000f300608060405260043610610062576000357c0100000000000000000000000000000000000000000000000000000000900463ffffffff16806379ba5097146100675780638da5cb5b1461007e578063d4ee1d90146100d5578063f2fde38b1461012c575b600080fd5b34801561007357600080fd5b5061007c61016f565b005b34801561008a57600080fd5b5061009361034b565b604051808273ffffffffffffffffffffffffffffffffffffffff1673ffffffffffffffffffffffffffffffffffffffff16815260200191505060405180910390f35b3480156100e157600080fd5b506100ea610370565b604051808273ffffffffffffffffffffffffffffffffffffffff1673ffffffffffffffffffffffffffffffffffffffff16815260200191505060405180910390f35b34801561013857600080fd5b5061016d600480360381019080803573ffffffffffffffffffffffffffffffffffffffff169060200190929190505050610396565b005b600160009054906101000a900473ffffffffffffffffffffffffffffffffffffffff1673ffffffffffffffffffffffffffffffffffffffff163373ffffffffffffffffffffffffffffffffffffffff161415156101cb57600080fd5b7f8be0079c531659141344cd1fd0a4f28419497f9722a3daafe3b4186f6b6457e06000809054906101000a900473ffffffffffffffffffffffffffffffffffffffff16600160009054906101000a900473ffffffffffffffffffffffffffffffffffffffff16604051808373ffffffffffffffffffffffffffffffffffffffff1673ffffffffffffffffffffffffffffffffffffffff1681526020018273ffffffffffffffffffffffffffffffffffffffff1673ffffffffffffffffffffffffffffffffffffffff1681526020019250505060405180910390a1600160009054906101000a900473ffffffffffffffffffffffffffffffffffffffff166000806101000a81548173ffffffffffffffffffffffffffffffffffffffff021916908373ffffffffffffffffffffffffffffffffffffffff1602179055506000600160006101000a81548173ffffffffffffffffffffffffffffffffffffffff021916908373ffffffffffffffffffffffffffffffffffffffff160217905550565b6000809054906101000a900473ffffffffffffffffffffffffffffffffffffffff1681565b600160009054906101000a900473ffffffffffffffffffffffffffffffffffffffff1681565b6000809054906101000a900473ffffffffffffffffffffffffffffffffffffffff1673ffffffffffffffffffffffffffffffffffffffff163373ffffffffffffffffffffffffffffffffffffffff161415156103f157600080fd5b80600160006101000a81548173ffffffffffffffffffffffffffffffffffffffff021916908373ffffffffffffffffffffffffffffffffffffffff160217905550505600a165627a7a72305820264e516eebe0016b12a36c69d2a409b82bc9c12006039cab2e75c6651769a7fd0029",
  "source": "pragma solidity ^0.4.20;\ninterface IADS {\n  function GetAddress(uint _id, string _name) public view returns(address addr);\n  function ScheduleUpdateForRoute(bytes32 _nameHash, uint _release, address _addr) public returns(bool);\n}\ninterface IADS_Client {\n  function Update() public returns(bool);\n}\ninterface IPricing {\n  function Credits(address _sender) external view returns(uint amount);\n\n  function Price(uint _option) external view returns(uint price);\n\n  function Charge(address _sender, uint _option) external returns(uint cost);\n\n  function SetPriceForOption(uint _option, uint _amount) external returns(bool success);\n\n  function AddCredits(address _user, uint _credits) external returns(bool success);\n}\ncontract AtraOwners {\n    address public owner;\n    address public newOwner;\n\n    event OwnershipTransferred(address from, address to);\n\n    constructor() public {\n        owner = msg.sender;\n    }\n\n    modifier isOwner {\n        require(msg.sender == owner);\n        _;\n    }\n\n    function transferOwnership(address _newOwner) public isOwner {\n        newOwner = _newOwner;\n    }\n    function acceptOwnership() public {\n        require(msg.sender == newOwner);\n        emit OwnershipTransferred(owner, newOwner);\n        owner = newOwner;\n        newOwner = address(0);\n    }\n}\nlibrary SafeMath {\n    function add(uint a, uint b) internal pure returns (uint c) {\n        c = a + b;\n        require(c >= a);\n    }\n    function sub(uint a, uint b) internal pure returns (uint c) {\n        require(b <= a);\n        c = a - b;\n    }\n    function mul(uint a, uint b) internal pure returns (uint c) {\n        c = a * b;\n        require(a == 0 || c / a == b);\n    }\n    function div(uint a, uint b) internal pure returns (uint c) {\n        require(b > 0);\n        c = a / b;\n    }\n}\ncontract ADS_Pricing is AtraOwners {\n    using SafeMath for uint;\n\n    mapping(address => uint) public credits;\n    mapping(uint => uint) public prices;\n    address ads_address;\n\n    constructor(address _ads_address) public {\n        credits[msg.sender] = 2;\n        ads_address = _ads_address;\n    }\n\n    function Credits(address _sender) external view returns(uint amount) {\n        return credits[_sender];\n    }\n\n    function Price(uint _option) external view returns(uint price) {\n        return 0;\n    }\n\n    function Charge(address _sender, uint _option) external returns(uint cost) {\n        //require the sender to only be the ADS contract.\n        IADS ADS = IADS(ads_address);\n        require(msg.sender == ADS.GetAddress(0, 'atra.ads'));\n        // use credits first\n        if(credits[_sender] > 0){\n          // subtract credits and return zero for the price to charge\n            credits[_sender] = credits[_sender].sub(1);\n            return 0;\n        }\n\n        return prices[_option];\n    }\n\n    function SetPriceForOption(uint _option, uint _amount) external isOwner returns(bool success) {\n        prices[_option] = _amount;\n        return true;\n    }\n\n    function AddCredits(address _user, uint _credits) external isOwner returns(bool success) {\n        credits[_user] = credits[_user].add(_credits);\n        return true;\n    }\n}\n",
  "sourcePath": "/Users/dvincent/dapps/truffle/atra-truffle/contracts/ADS_Pricing.sol",
  "compiler": {
    "name": "solc",
    "version": "0.4.24+commit.e67f0147.Emscripten.clang"
  },
  "schemaVersion": "2.0.0",
  "updatedAt": "2018-06-14T01:03:21.697Z"
}