{
  "contractName": "AtraOwners",
  "abi": [
    {
      "constant": true,
      "inputs": [],
      "name": "owner",
      "outputs": [
        {
          "name": "",
          "type": "address"
        }
      ],
      "payable": false,
      "stateMutability": "view",
      "type": "function"
    },
    {
      "constant": true,
      "inputs": [],
      "name": "newOwner",
      "outputs": [
        {
          "name": "",
          "type": "address"
        }
      ],
      "payable": false,
      "stateMutability": "view",
      "type": "function"
    },
    {
      "inputs": [],
      "payable": false,
      "stateMutability": "nonpayable",
      "type": "constructor"
    },
    {
      "anonymous": false,
      "inputs": [
        {
          "indexed": false,
          "name": "from",
          "type": "address"
        },
        {
          "indexed": false,
          "name": "to",
          "type": "address"
        }
      ],
      "name": "OwnershipTransferred",
      "type": "event"
    },
    {
      "constant": false,
      "inputs": [
        {
          "name": "_newOwner",
          "type": "address"
        }
      ],
      "name": "transferOwnership",
      "outputs": [],
      "payable": false,
      "stateMutability": "nonpayable",
      "type": "function"
    },
    {
      "constant": false,
      "inputs": [],
      "name": "acceptOwnership",
      "outputs": [],
      "payable": false,
      "stateMutability": "nonpayable",
      "type": "function"
    }
  ],
  "bytecode": "0x608060405234801561001057600080fd5b50336000806101000a81548173ffffffffffffffffffffffffffffffffffffffff021916908373ffffffffffffffffffffffffffffffffffffffff160217905550610461806100606000396000f300608060405260043610610062576000357c0100000000000000000000000000000000000000000000000000000000900463ffffffff16806379ba5097146100675780638da5cb5b1461007e578063d4ee1d90146100d5578063f2fde38b1461012c575b600080fd5b34801561007357600080fd5b5061007c61016f565b005b34801561008a57600080fd5b5061009361034b565b604051808273ffffffffffffffffffffffffffffffffffffffff1673ffffffffffffffffffffffffffffffffffffffff16815260200191505060405180910390f35b3480156100e157600080fd5b506100ea610370565b604051808273ffffffffffffffffffffffffffffffffffffffff1673ffffffffffffffffffffffffffffffffffffffff16815260200191505060405180910390f35b34801561013857600080fd5b5061016d600480360381019080803573ffffffffffffffffffffffffffffffffffffffff169060200190929190505050610396565b005b600160009054906101000a900473ffffffffffffffffffffffffffffffffffffffff1673ffffffffffffffffffffffffffffffffffffffff163373ffffffffffffffffffffffffffffffffffffffff161415156101cb57600080fd5b7f8be0079c531659141344cd1fd0a4f28419497f9722a3daafe3b4186f6b6457e06000809054906101000a900473ffffffffffffffffffffffffffffffffffffffff16600160009054906101000a900473ffffffffffffffffffffffffffffffffffffffff16604051808373ffffffffffffffffffffffffffffffffffffffff1673ffffffffffffffffffffffffffffffffffffffff1681526020018273ffffffffffffffffffffffffffffffffffffffff1673ffffffffffffffffffffffffffffffffffffffff1681526020019250505060405180910390a1600160009054906101000a900473ffffffffffffffffffffffffffffffffffffffff166000806101000a81548173ffffffffffffffffffffffffffffffffffffffff021916908373ffffffffffffffffffffffffffffffffffffffff1602179055506000600160006101000a81548173ffffffffffffffffffffffffffffffffffffffff021916908373ffffffffffffffffffffffffffffffffffffffff160217905550565b6000809054906101000a900473ffffffffffffffffffffffffffffffffffffffff1681565b600160009054906101000a900473ffffffffffffffffffffffffffffffffffffffff1681565b6000809054906101000a900473ffffffffffffffffffffffffffffffffffffffff1673ffffffffffffffffffffffffffffffffffffffff163373ffffffffffffffffffffffffffffffffffffffff161415156103f157600080fd5b80600160006101000a81548173ffffffffffffffffffffffffffffffffffffffff021916908373ffffffffffffffffffffffffffffffffffffffff160217905550505600a165627a7a723058206f15cb7e0c4cddbcea5288a208755be75f411d3349cb6369b916da584ad018490029",
  "source": "pragma solidity^0.4.20;\n/*\n    Company: Atra Blockchain Services LLC\n    Website: atra.io\n    Author: Dillon Vincent\n    Title: Address Delegate Service (ADS)\n    Documentation: atra.readthedocs.io\n    Date: 4/4/18\n*/\ninterface IADS {\n    function Create(string name, address currentAddress, string currentAbiLocation) public payable returns(uint newRouteId);\n\n    function ScheduleUpdate(uint _id, string _name, uint _release, address _addr, string _abiUrl) public returns(bool success);\n\n    function Get(uint _id, string _name) public view returns(string name, address addr, string abiUrl, uint released, uint version, uint update, address updateAddr, string updateAbiUrl, uint active, address owner, uint created);\n\n    function GetRouteIdsForOwner(address _owner) public view returns(uint[] routeIds);\n\n    function GetAddress(uint _id, string _name) public view returns(address addr);\n\n    function GetAddressAndAbi(uint _id, string _name) public view returns(address addr, string abiUrl);\n\n    function RoutesLength() public view returns(uint length);\n\n    function NameTaken(string _name) public view returns(bool taken);\n\n    function GetPendingRouteTransfer(uint _id, string _name) public view returns(address addr);\n\n    function GetPendingTransfersForSender() public view returns(uint[] routeIds);\n\n    function TransferRouteOwnership(uint _id, string _name, address _owner) public payable returns(bool success);\n\n    function AcceptRouteOwnership(uint _id, string _name) public payable returns(bool success);\n}\n\ninterface IPricing {\n    function Price(uint _option) external view returns (uint price);\n}\ncontract AtraOwners {\n    address public owner;\n    address public newOwner;\n\n    event OwnershipTransferred(address from, address to);\n\n    constructor() public {\n        owner = msg.sender;\n    }\n\n    modifier isOwner {\n        require(msg.sender == owner);\n        _;\n    }\n\n    function transferOwnership(address _newOwner) public isOwner {\n        newOwner = _newOwner;\n    }\n    function acceptOwnership() public {\n        require(msg.sender == newOwner);\n        emit OwnershipTransferred(owner, newOwner);\n        owner = newOwner;\n        newOwner = address(0);\n    }\n}\nlibrary SafeMath {\n    function add(uint a, uint b) internal pure returns (uint c) {\n        c = a + b;\n        require(c >= a);\n    }\n}\n\ncontract ADS is IADS, AtraOwners {\n    using SafeMath for uint;\n\n    struct RouteData {\n        string abiLocation; // url pointing to the abi json\n        address contractAddress; // address pointing to an ethereum contract\n    }\n\n    struct Route {\n        string name; //this will never change, used as a key\n        uint updateRelease; // the epoch time when the updated contract data is released\n        address owner; // address that owns/created and can modify route\n        address newOwner; // used to transfer ownership\n        RouteData current; // current contract data\n        RouteData update; // scheduled update contract data\n        uint created; //time created\n        uint version; // auto increment\n        uint released; //when the last release was\n    }\n\n    // Declare Storage\n    Route[] public Routes;\n    bool pendingReset = false;\n    mapping(bytes32 => uint) public ContractNamesToRoutes; // (keccak256('Route Name') => routeId)\n    mapping(address => uint[]) public OwnersToRoutes;\n    mapping(address => uint[]) public OwnersToPendingTransfersByRouteId;\n\n    //Events\n    event RouteCreated(string name, address owner);\n    event UpdateScheduled(string name, address owner);\n    event TransferOwnership(string name, address owner, address newOwner);\n    event AcceptOwnership(string name, address newOwner);\n\n    //Constructor\n    constructor() public {\n        // Create padding in Routes array to be able to check for unique name in list by returning 0 for no match\n        ContractNamesToRoutes[keccak256('')] = Routes.push(Route('', now, this, this, RouteData('',this), RouteData('',this), now, 0, now)) -1;\n        // Register ADS to position 1\n        ContractNamesToRoutes[keccak256('atra.ads')] = Routes.push(Route('atra.ads', now, msg.sender, msg.sender, RouteData('',this), RouteData('',this), now, 0, now)) -1;\n\n        OwnersToRoutes[msg.sender].push(1);\n\n        ContractNamesToRoutes[keccak256('atra.ads.pricing')] = Routes.push(Route('atra.ads.pricing', now, msg.sender, msg.sender, RouteData('',this), RouteData('',this), now, 0, now)) -1;\n\n        OwnersToRoutes[msg.sender].push(2);\n    }\n\n    function Get(uint _id, string _name) public view returns(\n            string name,\n            address addr,\n            string abiUrl,\n            uint released,\n            uint version,\n            uint update,\n            address updateAddr,\n            string updateAbiUrl,\n            uint active,\n            address owner,\n            uint created\n        ) {\n        Route memory route;\n        if(bytes(_name).length > 0){\n            route = Routes[ContractNamesToRoutes[keccak256(_name)]];\n        }else{\n            route = Routes[_id];\n        }\n        return (\n            route.name, //name\n            route.current.contractAddress, //addr\n            route.current.abiLocation, //abi\n            // if update is active the released date is when it went live, else it's the release date\n            route.updateRelease < now ? route.updateRelease : route.released, //released\n            //check is next contract is active, if so it's a different version add 1, else return normal version\n            route.updateRelease < now ? route.version.add(1) : route.version, //version\n            // active position  will be used to determine what address to use by the client 0=current 1=next\n            route.updateRelease, //update\n            route.update.contractAddress, //updateAddr\n            route.update.abiLocation, //updateAbi\n            route.updateRelease < now ? 1 : 0, //active\n            route.owner, //owner\n            route.created //created\n            );\n    }\n\n    function GetRouteIdsForOwner(address _owner) public view returns(uint[] routeIds) {\n        return OwnersToRoutes[_owner];\n    }\n\n    function GetAddress(uint _id, string _name) public view returns(address addr) {\n        Route memory route;\n        if(bytes(_name).length > 0){\n            route = Routes[ContractNamesToRoutes[keccak256(_name)]];\n        }else{\n            route = Routes[_id];\n        }\n        return route.updateRelease < now ? route.update.contractAddress : route.current.contractAddress;\n    }\n\n    function GetAddressAndAbi(uint _id, string _name) public view returns(address addr, string abiUrl) {\n        Route memory route;\n        if(bytes(_name).length > 0){\n            route = Routes[ContractNamesToRoutes[keccak256(_name)]];\n        }else{\n            route = Routes[_id];\n        }\n        return route.updateRelease < now ? (route.update.contractAddress, route.update.abiLocation) : (route.current.contractAddress, route.current.abiLocation);\n    }\n\n    function RoutesLength() public view returns(uint length){\n        return Routes.length;\n    }\n\n    function NameTaken(string _name) public view returns(bool) {\n        require(bytes(_name).length > 0 && bytes(_name).length <= 100);\n        if(ContractNamesToRoutes[keccak256(_name)] == 0){\n            return false;//name is not taken\n        }else{\n            return true;\n        }\n    }\n\n    function Create(string _name, address _addr, string _abiUrl) public payable returns(uint id) {\n        //require(msg.sender == owner || msg.value == Price(0));\n\n        // validate inputs\n        require(bytes(_name).length > 0 && bytes(_name).length <= 100 && bytes(_abiUrl).length <= 256);\n        require(ContractNamesToRoutes[keccak256(_name)] == 0);\n        uint routeId = Routes.push(Route(_name, now, msg.sender, msg.sender, RouteData(_abiUrl, _addr), RouteData(_abiUrl, _addr),now, 0, now)) -1;\n        OwnersToRoutes[msg.sender].push(routeId);\n        emit RouteCreated(_name, msg.sender);\n        return ContractNamesToRoutes[keccak256(_name)] = routeId;\n    }\n\n    function ScheduleUpdate(uint _id, string _name, uint _release, address _addr, string _abiUrl) public returns(bool success) {\n        //require(msg.sender == owner || msg.value == Price(1));\n\n        //dont require name validation since we aren't storing it\n        require(bytes(_abiUrl).length <= 256);\n        Route storage route;\n        if(bytes(_name).length > 0){\n            route = Routes[ContractNamesToRoutes[keccak256(_name)]];\n        }else{\n            route = Routes[_id];\n        }\n\n        require(route.owner == msg.sender); //require sender to be owner to update\n\n        //if Next Contract Data is active do not overwrite Next data, move it to Current and increment the version\n        if(route.updateRelease < now){\n            route.current = route.update;\n            route.released = route.updateRelease;\n            route.version = route.version.add(1);\n        }\n\n        route.updateRelease = now.add(_release);// if updateRelease is zero update will be live now\n        route.update.contractAddress = _addr; // update next address\n        route.update.abiLocation = _abiUrl; // update next abi location\n        emit UpdateScheduled(route.name, msg.sender);\n        return true; // return success\n    }\n\n    function GetPendingRouteTransfer(uint _id, string _name) public view returns(address addr) {\n        Route storage route;\n        if(bytes(_name).length > 0){\n            route = Routes[ContractNamesToRoutes[keccak256(_name)]];\n        }else{\n            route = Routes[_id];\n        }\n        return route.newOwner != route.owner ? route.newOwner : address(0);\n    }\n\n    function GetPendingTransfersForSender() public view returns(uint[] routeIds) {\n        return OwnersToPendingTransfersByRouteId[msg.sender];\n    }\n\n    function TransferRouteOwnership(uint _id, string _name, address _owner) public payable returns(bool success) {\n        require(msg.sender == owner || msg.value == Price(2));\n        Route storage route;\n        if(bytes(_name).length > 0){\n            _id = ContractNamesToRoutes[keccak256(_name)];\n            route = Routes[ContractNamesToRoutes[keccak256(_name)]];\n        }else{\n            route = Routes[_id];\n        }\n        require(route.owner == msg.sender); //require sender to be owner to transfer ownership\n        route.newOwner = _owner; // set new owner\n        OwnersToPendingTransfersByRouteId[route.newOwner].push(_id);\n        emit TransferOwnership(route.name, msg.sender, route.newOwner);\n        return true; // return success\n    }\n\n    function AcceptRouteOwnership(uint _id, string _name) public payable returns(bool success) {\n        require(msg.sender == owner || msg.value == Price(3));\n        Route storage route;\n        if(bytes(_name).length > 0){\n            _id = ContractNamesToRoutes[keccak256(_name)];\n            route = Routes[ContractNamesToRoutes[keccak256(_name)]];\n        }else{\n            route = Routes[_id];\n        }\n        require(route.newOwner == msg.sender); //require sender to be newOwner to accecpt ownership\n\n        //delete route lookup for pervious owner\n        //get last routeid in array\n        uint keepRouteId = OwnersToRoutes[route.owner][OwnersToRoutes[route.owner].length - 1];\n        //replace routeId marked for delete\n        for(uint x = 0; x < OwnersToRoutes[route.owner].length; x++){\n            if(OwnersToRoutes[route.owner][x] == _id){\n                OwnersToRoutes[route.owner][x] = keepRouteId;\n            }\n        }\n        //delete last position\n        delete OwnersToRoutes[route.owner][OwnersToRoutes[route.owner].length - 1];\n        //adjust array length\n        OwnersToRoutes[route.owner].length--;\n\n         // Add route to new owner\n        route.owner = route.newOwner; // transfer ownership\n        OwnersToRoutes[route.owner].push(_id); // add lookup\n\n\n        // remove route id from PendingRouteOwnershipTransfer for the new owner\n        uint keepPendingRouteId = OwnersToPendingTransfersByRouteId[route.owner][OwnersToPendingTransfersByRouteId[route.owner].length - 1];\n        //replace routeId marked for delete\n        for(uint y = 0; y < OwnersToPendingTransfersByRouteId[route.owner].length; y++){\n            if(OwnersToPendingTransfersByRouteId[route.owner][y] == _id){\n                OwnersToPendingTransfersByRouteId[route.owner][y] = keepPendingRouteId;\n            }\n        }\n        //delete last position\n        delete OwnersToPendingTransfersByRouteId[route.owner][OwnersToPendingTransfersByRouteId[route.owner].length - 1];\n        //adjust array length\n        OwnersToPendingTransfersByRouteId[route.owner].length--;\n\n\n        emit AcceptOwnership(route.name, route.owner);\n        return true; // return success\n    }\n\n    function Price(uint _option) public view returns(uint price) {\n        //Options: 0=create,1=update,2=transfer,3=accepttransfer\n        IPricing pricingContract = IPricing(GetAddress(0,'atra.ads.pricing'));\n        return pricingContract.Price(_option);\n    }\n\n    function Widthdraw(uint _amount) public isOwner returns(bool success) {\n        // if amount is zero take the whole balance else use amount\n        owner.transfer(_amount == 0 ? address(this).balance : _amount);\n        return true;\n    }\n\n    function Balance() public view isOwner returns(uint balance) {\n        return address(this).balance;\n    }\n\n}\n",
  "sourcePath": "/Users/dvincent/dapps/truffle/atra-truffle/contracts/ADS.sol",
  "compiler": {
    "name": "solc",
    "version": "0.4.24+commit.e67f0147.Emscripten.clang"
  },
  "schemaVersion": "2.0.0",
  "updatedAt": "2018-06-05T03:47:42.322Z"
}