{
  "contractName": "AtraNetworkManager",
  "abi": [
    {
      "constant": false,
      "inputs": [],
      "name": "acceptOwnership",
      "outputs": [],
      "payable": false,
      "stateMutability": "nonpayable",
      "type": "function"
    },
    {
      "constant": true,
      "inputs": [
        {
          "name": "",
          "type": "uint256"
        }
      ],
      "name": "Networks",
      "outputs": [
        {
          "name": "name",
          "type": "string"
        },
        {
          "name": "updateRelease",
          "type": "uint256"
        },
        {
          "components": [
            {
              "name": "abiLocation",
              "type": "string"
            },
            {
              "name": "contractAddress",
              "type": "address"
            }
          ],
          "name": "current",
          "type": "tuple"
        },
        {
          "components": [
            {
              "name": "abiLocation",
              "type": "string"
            },
            {
              "name": "contractAddress",
              "type": "address"
            }
          ],
          "name": "update",
          "type": "tuple"
        },
        {
          "name": "created",
          "type": "uint256"
        },
        {
          "name": "version",
          "type": "uint256"
        },
        {
          "name": "released",
          "type": "uint256"
        }
      ],
      "payable": false,
      "stateMutability": "view",
      "type": "function"
    },
    {
      "constant": true,
      "inputs": [],
      "name": "owner",
      "outputs": [
        {
          "name": "",
          "type": "address"
        }
      ],
      "payable": false,
      "stateMutability": "view",
      "type": "function"
    },
    {
      "constant": true,
      "inputs": [],
      "name": "newOwner",
      "outputs": [
        {
          "name": "",
          "type": "address"
        }
      ],
      "payable": false,
      "stateMutability": "view",
      "type": "function"
    },
    {
      "constant": false,
      "inputs": [
        {
          "name": "_newOwner",
          "type": "address"
        }
      ],
      "name": "transferOwnership",
      "outputs": [],
      "payable": false,
      "stateMutability": "nonpayable",
      "type": "function"
    },
    {
      "constant": true,
      "inputs": [
        {
          "name": "",
          "type": "bytes32"
        }
      ],
      "name": "NetworkNamesToNetworks",
      "outputs": [
        {
          "name": "",
          "type": "uint256"
        }
      ],
      "payable": false,
      "stateMutability": "view",
      "type": "function"
    },
    {
      "inputs": [],
      "payable": false,
      "stateMutability": "nonpayable",
      "type": "constructor"
    },
    {
      "anonymous": false,
      "inputs": [
        {
          "indexed": false,
          "name": "name",
          "type": "string"
        },
        {
          "indexed": false,
          "name": "owner",
          "type": "address"
        }
      ],
      "name": "NetworkCreated",
      "type": "event"
    },
    {
      "anonymous": false,
      "inputs": [
        {
          "indexed": false,
          "name": "name",
          "type": "string"
        },
        {
          "indexed": false,
          "name": "owner",
          "type": "address"
        }
      ],
      "name": "UpdateScheduled",
      "type": "event"
    },
    {
      "anonymous": false,
      "inputs": [
        {
          "indexed": false,
          "name": "from",
          "type": "address"
        },
        {
          "indexed": false,
          "name": "to",
          "type": "address"
        }
      ],
      "name": "OwnershipTransferred",
      "type": "event"
    },
    {
      "constant": true,
      "inputs": [
        {
          "name": "_id",
          "type": "uint256"
        },
        {
          "name": "_name",
          "type": "string"
        }
      ],
      "name": "Get",
      "outputs": [
        {
          "name": "name",
          "type": "string"
        },
        {
          "name": "addr",
          "type": "address"
        },
        {
          "name": "abiUrl",
          "type": "string"
        },
        {
          "name": "released",
          "type": "uint256"
        },
        {
          "name": "version",
          "type": "uint256"
        },
        {
          "name": "update",
          "type": "uint256"
        },
        {
          "name": "updateAddr",
          "type": "address"
        },
        {
          "name": "updateAbiUrl",
          "type": "string"
        },
        {
          "name": "active",
          "type": "uint256"
        },
        {
          "name": "created",
          "type": "uint256"
        }
      ],
      "payable": false,
      "stateMutability": "view",
      "type": "function"
    },
    {
      "constant": true,
      "inputs": [
        {
          "name": "_id",
          "type": "uint256"
        },
        {
          "name": "_name",
          "type": "string"
        }
      ],
      "name": "GetAddress",
      "outputs": [
        {
          "name": "addr",
          "type": "address"
        }
      ],
      "payable": false,
      "stateMutability": "view",
      "type": "function"
    },
    {
      "constant": true,
      "inputs": [
        {
          "name": "_id",
          "type": "uint256"
        },
        {
          "name": "_name",
          "type": "string"
        }
      ],
      "name": "GetAddressAndAbi",
      "outputs": [
        {
          "name": "addr",
          "type": "address"
        },
        {
          "name": "abiUrl",
          "type": "string"
        }
      ],
      "payable": false,
      "stateMutability": "view",
      "type": "function"
    },
    {
      "constant": true,
      "inputs": [],
      "name": "NetworksLength",
      "outputs": [
        {
          "name": "length",
          "type": "uint256"
        }
      ],
      "payable": false,
      "stateMutability": "view",
      "type": "function"
    },
    {
      "constant": true,
      "inputs": [
        {
          "name": "_name",
          "type": "string"
        }
      ],
      "name": "NameTaken",
      "outputs": [
        {
          "name": "",
          "type": "bool"
        }
      ],
      "payable": false,
      "stateMutability": "view",
      "type": "function"
    },
    {
      "constant": false,
      "inputs": [
        {
          "name": "_name",
          "type": "string"
        },
        {
          "name": "_addr",
          "type": "address"
        },
        {
          "name": "_abiUrl",
          "type": "string"
        }
      ],
      "name": "Create",
      "outputs": [
        {
          "name": "id",
          "type": "uint256"
        }
      ],
      "payable": false,
      "stateMutability": "nonpayable",
      "type": "function"
    },
    {
      "constant": false,
      "inputs": [
        {
          "name": "_id",
          "type": "uint256"
        },
        {
          "name": "_name",
          "type": "string"
        },
        {
          "name": "_release",
          "type": "uint256"
        },
        {
          "name": "_addr",
          "type": "address"
        },
        {
          "name": "_abiUrl",
          "type": "string"
        }
      ],
      "name": "ScheduleUpdate",
      "outputs": [
        {
          "name": "success",
          "type": "bool"
        }
      ],
      "payable": false,
      "stateMutability": "nonpayable",
      "type": "function"
    }
  ],
  "bytecode": "0x60806040523480156200001157600080fd5b50336000806101000a81548173ffffffffffffffffffffffffffffffffffffffff021916908373ffffffffffffffffffffffffffffffffffffffff1602179055506200008e602060405190810160405280600081525030602060405190810160405280600081525062000095640100000000026401000000009004565b506200051c565b600080600060036000876040518082805190602001908083835b602083101515620000d65780518252602082019150602081019050602083039250620000af565b6001836020036101000a038019825116818451168082178552505050505050905001915050604051809103902060001916600019168152602001908152602001600020541415156200012757600080fd5b6001600260e06040519081016040528088815260200142815260200160408051908101604052808881526020018973ffffffffffffffffffffffffffffffffffffffff16815250815260200160408051908101604052808881526020018973ffffffffffffffffffffffffffffffffffffffff1681525081526020014281526020016000815260200142815250908060018154018082558091505090600182039060005260206000209060090201600090919290919091506000820151816000019080519060200190620001fd9291906200046d565b506020820151816001015560408201518160020160008201518160000190805190602001906200022f9291906200046d565b5060208201518160010160006101000a81548173ffffffffffffffffffffffffffffffffffffffff021916908373ffffffffffffffffffffffffffffffffffffffff16021790555050506060820151816004016000820151816000019080519060200190620002a09291906200046d565b5060208201518160010160006101000a81548173ffffffffffffffffffffffffffffffffffffffff021916908373ffffffffffffffffffffffffffffffffffffffff16021790555050506080820151816006015560a0820151816007015560c0820151816008015550500390507f5ef5cc47f48ad159e4f09e881e6c6b4e8c1578230a39e712bf962e7a2ec82be6853360405180806020018373ffffffffffffffffffffffffffffffffffffffff1673ffffffffffffffffffffffffffffffffffffffff168152602001828103825284818151815260200191508051906020019080838360005b83811015620003a457808201518184015260208101905062000387565b50505050905090810190601f168015620003d25780820380516001836020036101000a031916815260200191505b50935050505060405180910390a18060036000876040518082805190602001908083835b6020831015156200041d5780518252602082019150602081019050602083039250620003f6565b6001836020036101000a0380198251168184511680821785525050505050509050019150506040518091039020600019166000191681526020019081526020016000208190559150509392505050565b828054600181600116156101000203166002900490600052602060002090601f016020900481019282601f10620004b057805160ff1916838001178555620004e1565b82800160010185558215620004e1579182015b82811115620004e0578251825591602001919060010190620004c3565b5b509050620004f09190620004f4565b5090565b6200051991905b8082111562000515576000816000905550600101620004fb565b5090565b90565b612e84806200052c6000396000f3006080604052600436106100c5576000357c0100000000000000000000000000000000000000000000000000000000900463ffffffff16806315b1b556146100ca57806335fee77d1461014f57806350ae410d146101a25780635719715e146102935780636de56ee1146104e0578063710475dc1461050b57806379ba5097146105925780638d9c8d3d146105a95780638da5cb5b14610679578063a23b1f0b146106d0578063d4ee1d901461076f578063f2fde38b146107c6578063f7a550f214610809575b600080fd5b3480156100d657600080fd5b5061010d6004803603810190808035906020019092919080359060200190820180359060200191909192939192939050505061084e565b604051808273ffffffffffffffffffffffffffffffffffffffff1673ffffffffffffffffffffffffffffffffffffffff16815260200191505060405180910390f35b34801561015b57600080fd5b50610188600480360381019080803590602001908201803590602001919091929391929390505050610895565b604051808215151515815260200191505060405180910390f35b3480156101ae57600080fd5b506101e56004803603810190808035906020019092919080359060200190820180359060200191909192939192939050505061090c565b604051808373ffffffffffffffffffffffffffffffffffffffff1673ffffffffffffffffffffffffffffffffffffffff16815260200180602001828103825283818151815260200191508051906020019080838360005b8381101561025757808201518184015260208101905061023c565b50505050905090810190601f1680156102845780820380516001836020036101000a031916815260200191505b50935050505060405180910390f35b34801561029f57600080fd5b5061030460048036038101908080359060200190929190803590602001908201803590602001908080601f0160208091040260200160405190810160405280939291908181526020018383808284378201915050505050509192919290505050610fc3565b60405180806020018b73ffffffffffffffffffffffffffffffffffffffff1673ffffffffffffffffffffffffffffffffffffffff168152602001806020018a81526020018981526020018881526020018773ffffffffffffffffffffffffffffffffffffffff1673ffffffffffffffffffffffffffffffffffffffff1681526020018060200186815260200185815260200184810384528e818151815260200191508051906020019080838360005b838110156103ce5780820151818401526020810190506103b3565b50505050905090810190601f1680156103fb5780820380516001836020036101000a031916815260200191505b5084810383528c818151815260200191508051906020019080838360005b83811015610434578082015181840152602081019050610419565b50505050905090810190601f1680156104615780820380516001836020036101000a031916815260200191505b50848103825287818151815260200191508051906020019080838360005b8381101561049a57808201518184015260208101905061047f565b50505050905090810190601f1680156104c75780820380516001836020036101000a031916815260200191505b509d505050505050505050505050505060405180910390f35b3480156104ec57600080fd5b506104f5611747565b6040518082815260200191505060405180910390f35b34801561051757600080fd5b5061057c600480360381019080803590602001908201803590602001919091929391929390803573ffffffffffffffffffffffffffffffffffffffff169060200190929190803590602001908201803590602001919091929391929390505050611754565b6040518082815260200191505060405180910390f35b34801561059e57600080fd5b506105a761185e565b005b3480156105b557600080fd5b506105d460048036038101908080359060200190929190505050611a3a565b6040518080602001888152602001878152602001868152602001858152602001848152602001838152602001828103825289818151815260200191508051906020019080838360005b8381101561063857808201518184015260208101905061061d565b50505050905090810190601f1680156106655780820380516001836020036101000a031916815260200191505b509850505050505050505060405180910390f35b34801561068557600080fd5b5061068e611d27565b604051808273ffffffffffffffffffffffffffffffffffffffff1673ffffffffffffffffffffffffffffffffffffffff16815260200191505060405180910390f35b3480156106dc57600080fd5b506107556004803603810190808035906020019092919080359060200190820180359060200191909192939192939080359060200190929190803573ffffffffffffffffffffffffffffffffffffffff169060200190929190803590602001908201803590602001919091929391929390505050611d4c565b604051808215151515815260200191505060405180910390f35b34801561077b57600080fd5b50610784612091565b604051808273ffffffffffffffffffffffffffffffffffffffff1673ffffffffffffffffffffffffffffffffffffffff16815260200191505060405180910390f35b3480156107d257600080fd5b50610807600480360381019080803573ffffffffffffffffffffffffffffffffffffffff1690602001909291905050506120b7565b005b34801561081557600080fd5b506108386004803603810190808035600019169060200190929190505050612156565b6040518082815260200191505060405180910390f35b600061088c8484848080601f01602080910402602001604051908101604052809392919081815260200183838082843782019150505050505061216e565b90509392505050565b600080838390501180156108ad575060648383905011155b15156108b857600080fd5b6000600360008585604051808383808284378201915050925050506040518091039020600019166000191681526020019081526020016000205414156109015760009050610906565b600190505b92915050565b60006060610918612c31565b6000858590501115610c6d576002600360008787604051808383808284378201915050925050506040518091039020600019166000191681526020019081526020016000205481548110151561096a57fe5b906000526020600020906009020160e06040519081016040529081600082018054600181600116156101000203166002900480601f016020809104026020016040519081016040528092919081815260200182805460018160011615610100020316600290048015610a1d5780601f106109f257610100808354040283529160200191610a1d565b820191906000526020600020905b815481529060010190602001808311610a0057829003601f168201915b505050505081526020016001820154815260200160028201604080519081016040529081600082018054600181600116156101000203166002900480601f016020809104026020016040519081016040528092919081815260200182805460018160011615610100020316600290048015610ad95780601f10610aae57610100808354040283529160200191610ad9565b820191906000526020600020905b815481529060010190602001808311610abc57829003601f168201915b505050505081526020016001820160009054906101000a900473ffffffffffffffffffffffffffffffffffffffff1673ffffffffffffffffffffffffffffffffffffffff1673ffffffffffffffffffffffffffffffffffffffff1681525050815260200160048201604080519081016040529081600082018054600181600116156101000203166002900480601f016020809104026020016040519081016040528092919081815260200182805460018160011615610100020316600290048015610be55780601f10610bba57610100808354040283529160200191610be5565b820191906000526020600020905b815481529060010190602001808311610bc857829003601f168201915b505050505081526020016001820160009054906101000a900473ffffffffffffffffffffffffffffffffffffffff1673ffffffffffffffffffffffffffffffffffffffff1673ffffffffffffffffffffffffffffffffffffffff1681525050815260200160068201548152602001600782015481526020016008820154815250509050610f7b565b600286815481101515610c7c57fe5b906000526020600020906009020160e06040519081016040529081600082018054600181600116156101000203166002900480601f016020809104026020016040519081016040528092919081815260200182805460018160011615610100020316600290048015610d2f5780601f10610d0457610100808354040283529160200191610d2f565b820191906000526020600020905b815481529060010190602001808311610d1257829003601f168201915b505050505081526020016001820154815260200160028201604080519081016040529081600082018054600181600116156101000203166002900480601f016020809104026020016040519081016040528092919081815260200182805460018160011615610100020316600290048015610deb5780601f10610dc057610100808354040283529160200191610deb565b820191906000526020600020905b815481529060010190602001808311610dce57829003601f168201915b505050505081526020016001820160009054906101000a900473ffffffffffffffffffffffffffffffffffffffff1673ffffffffffffffffffffffffffffffffffffffff1673ffffffffffffffffffffffffffffffffffffffff1681525050815260200160048201604080519081016040529081600082018054600181600116156101000203166002900480601f016020809104026020016040519081016040528092919081815260200182805460018160011615610100020316600290048015610ef75780601f10610ecc57610100808354040283529160200191610ef7565b820191906000526020600020905b815481529060010190602001808311610eda57829003601f168201915b505050505081526020016001820160009054906101000a900473ffffffffffffffffffffffffffffffffffffffff1673ffffffffffffffffffffffffffffffffffffffff1673ffffffffffffffffffffffffffffffffffffffff16815250508152602001600682015481526020016007820154815260200160088201548152505090505b42816020015110610fa057806040015160200151816040015160000151809050610fb6565b8060600151602001518160600151600001518090505b9250925050935093915050565b6060600060606000806000806060600080610fdc612c31565b60008c511115611375576002600360008e6040518082805190602001908083835b6020831015156110225780518252602082019150602081019050602083039250610ffd565b6001836020036101000a0380198251168184511680821785525050505050509050019150506040518091039020600019166000191681526020019081526020016000205481548110151561107257fe5b906000526020600020906009020160e06040519081016040529081600082018054600181600116156101000203166002900480601f0160208091040260200160405190810160405280929190818152602001828054600181600116156101000203166002900480156111255780601f106110fa57610100808354040283529160200191611125565b820191906000526020600020905b81548152906001019060200180831161110857829003601f168201915b505050505081526020016001820154815260200160028201604080519081016040529081600082018054600181600116156101000203166002900480601f0160208091040260200160405190810160405280929190818152602001828054600181600116156101000203166002900480156111e15780601f106111b6576101008083540402835291602001916111e1565b820191906000526020600020905b8154815290600101906020018083116111c457829003601f168201915b505050505081526020016001820160009054906101000a900473ffffffffffffffffffffffffffffffffffffffff1673ffffffffffffffffffffffffffffffffffffffff1673ffffffffffffffffffffffffffffffffffffffff1681525050815260200160048201604080519081016040529081600082018054600181600116156101000203166002900480601f0160208091040260200160405190810160405280929190818152602001828054600181600116156101000203166002900480156112ed5780601f106112c2576101008083540402835291602001916112ed565b820191906000526020600020905b8154815290600101906020018083116112d057829003601f168201915b505050505081526020016001820160009054906101000a900473ffffffffffffffffffffffffffffffffffffffff1673ffffffffffffffffffffffffffffffffffffffff1673ffffffffffffffffffffffffffffffffffffffff1681525050815260200160068201548152602001600782015481526020016008820154815250509050611683565b60028d81548110151561138457fe5b906000526020600020906009020160e06040519081016040529081600082018054600181600116156101000203166002900480601f0160208091040260200160405190810160405280929190818152602001828054600181600116156101000203166002900480156114375780601f1061140c57610100808354040283529160200191611437565b820191906000526020600020905b81548152906001019060200180831161141a57829003601f168201915b505050505081526020016001820154815260200160028201604080519081016040529081600082018054600181600116156101000203166002900480601f0160208091040260200160405190810160405280929190818152602001828054600181600116156101000203166002900480156114f35780601f106114c8576101008083540402835291602001916114f3565b820191906000526020600020905b8154815290600101906020018083116114d657829003601f168201915b505050505081526020016001820160009054906101000a900473ffffffffffffffffffffffffffffffffffffffff1673ffffffffffffffffffffffffffffffffffffffff1673ffffffffffffffffffffffffffffffffffffffff1681525050815260200160048201604080519081016040529081600082018054600181600116156101000203166002900480601f0160208091040260200160405190810160405280929190818152602001828054600181600116156101000203166002900480156115ff5780601f106115d4576101008083540402835291602001916115ff565b820191906000526020600020905b8154815290600101906020018083116115e257829003601f168201915b505050505081526020016001820160009054906101000a900473ffffffffffffffffffffffffffffffffffffffff1673ffffffffffffffffffffffffffffffffffffffff1673ffffffffffffffffffffffffffffffffffffffff16815250508152602001600682015481526020016007820154815260200160088201548152505090505b8060000151816040015160200151826040015160000151428460200151106116af578360c001516116b5565b83602001515b428560200151106116ca578460a001516116e3565b6116e260018660a0015161284b90919063ffffffff16565b5b85602001518660600151602001518760600151600001514289602001511061170c57600061170f565b60015b89608001518999508797508292508160ff1691509a509a509a509a509a509a509a509a509a509a50509295989b9194979a5092959850565b6000600280549050905090565b60008060009054906101000a900473ffffffffffffffffffffffffffffffffffffffff1673ffffffffffffffffffffffffffffffffffffffff163373ffffffffffffffffffffffffffffffffffffffff161415156117b157600080fd5b6000868690501180156117c8575060648686905011155b80156117d957506101008383905011155b15156117e457600080fd5b61185386868080601f0160208091040260200160405190810160405280939291908181526020018383808284378201915050505050508585858080601f016020809104026020016040519081016040528093929190818152602001838380828437820191505050505050612867565b905095945050505050565b600160009054906101000a900473ffffffffffffffffffffffffffffffffffffffff1673ffffffffffffffffffffffffffffffffffffffff163373ffffffffffffffffffffffffffffffffffffffff161415156118ba57600080fd5b7f8be0079c531659141344cd1fd0a4f28419497f9722a3daafe3b4186f6b6457e06000809054906101000a900473ffffffffffffffffffffffffffffffffffffffff16600160009054906101000a900473ffffffffffffffffffffffffffffffffffffffff16604051808373ffffffffffffffffffffffffffffffffffffffff1673ffffffffffffffffffffffffffffffffffffffff1681526020018273ffffffffffffffffffffffffffffffffffffffff1673ffffffffffffffffffffffffffffffffffffffff1681526020019250505060405180910390a1600160009054906101000a900473ffffffffffffffffffffffffffffffffffffffff166000806101000a81548173ffffffffffffffffffffffffffffffffffffffff021916908373ffffffffffffffffffffffffffffffffffffffff1602179055506000600160006101000a81548173ffffffffffffffffffffffffffffffffffffffff021916908373ffffffffffffffffffffffffffffffffffffffff160217905550565b600281815481101515611a4957fe5b9060005260206000209060090201600091509050806000018054600181600116156101000203166002900480601f016020809104026020016040519081016040528092919081815260200182805460018160011615610100020316600290048015611af55780601f10611aca57610100808354040283529160200191611af5565b820191906000526020600020905b815481529060010190602001808311611ad857829003601f168201915b50505050509080600101549080600201604080519081016040529081600082018054600181600116156101000203166002900480601f016020809104026020016040519081016040528092919081815260200182805460018160011615610100020316600290048015611ba95780601f10611b7e57610100808354040283529160200191611ba9565b820191906000526020600020905b815481529060010190602001808311611b8c57829003601f168201915b505050505081526020016001820160009054906101000a900473ffffffffffffffffffffffffffffffffffffffff1673ffffffffffffffffffffffffffffffffffffffff1673ffffffffffffffffffffffffffffffffffffffff16815250509080600401604080519081016040529081600082018054600181600116156101000203166002900480601f016020809104026020016040519081016040528092919081815260200182805460018160011615610100020316600290048015611cb15780601f10611c8657610100808354040283529160200191611cb1565b820191906000526020600020905b815481529060010190602001808311611c9457829003601f168201915b505050505081526020016001820160009054906101000a900473ffffffffffffffffffffffffffffffffffffffff1673ffffffffffffffffffffffffffffffffffffffff1673ffffffffffffffffffffffffffffffffffffffff1681525050908060060154908060070154908060080154905087565b6000809054906101000a900473ffffffffffffffffffffffffffffffffffffffff1681565b6000806000809054906101000a900473ffffffffffffffffffffffffffffffffffffffff1673ffffffffffffffffffffffffffffffffffffffff163373ffffffffffffffffffffffffffffffffffffffff16141515611daa57600080fd5b6101008484905011151515611dbe57600080fd5b6000888890501115611e25576002600360008a8a6040518083838082843782019150509250505060405180910390206000191660001916815260200190815260200160002054815481101515611e1057fe5b90600052602060002090600902019050611e45565b600289815481101515611e3457fe5b906000526020600020906009020190505b4281600101541015611f1957806004018160020160008201816000019080546001816001161561010002031660029004611e80929190612c7c565b506001820160009054906101000a900473ffffffffffffffffffffffffffffffffffffffff168160010160006101000a81548173ffffffffffffffffffffffffffffffffffffffff021916908373ffffffffffffffffffffffffffffffffffffffff16021790555090505080600101548160080181905550611f106001826007015461284b90919063ffffffff16565b81600701819055505b611f2c864261284b90919063ffffffff16565b8160010181905550848160040160010160006101000a81548173ffffffffffffffffffffffffffffffffffffffff021916908373ffffffffffffffffffffffffffffffffffffffff1602179055508383826004016000019190611f90929190612d03565b507fd9259f20e97fc7f3a9a097b4cdff953ba09e4e0fb7fc0aae8064429f8111e721816000013360405180806020018373ffffffffffffffffffffffffffffffffffffffff1673ffffffffffffffffffffffffffffffffffffffff1681526020018281038252848181546001816001161561010002031660029004815260200191508054600181600116156101000203166002900480156120725780601f1061204757610100808354040283529160200191612072565b820191906000526020600020905b81548152906001019060200180831161205557829003601f168201915b5050935050505060405180910390a16001915050979650505050505050565b600160009054906101000a900473ffffffffffffffffffffffffffffffffffffffff1681565b6000809054906101000a900473ffffffffffffffffffffffffffffffffffffffff1673ffffffffffffffffffffffffffffffffffffffff163373ffffffffffffffffffffffffffffffffffffffff1614151561211257600080fd5b80600160006101000a81548173ffffffffffffffffffffffffffffffffffffffff021916908373ffffffffffffffffffffffffffffffffffffffff16021790555050565b60036020528060005260406000206000915090505481565b6000612178612c31565b60008351111561251157600260036000856040518082805190602001908083835b6020831015156121be5780518252602082019150602081019050602083039250612199565b6001836020036101000a0380198251168184511680821785525050505050509050019150506040518091039020600019166000191681526020019081526020016000205481548110151561220e57fe5b906000526020600020906009020160e06040519081016040529081600082018054600181600116156101000203166002900480601f0160208091040260200160405190810160405280929190818152602001828054600181600116156101000203166002900480156122c15780601f10612296576101008083540402835291602001916122c1565b820191906000526020600020905b8154815290600101906020018083116122a457829003601f168201915b505050505081526020016001820154815260200160028201604080519081016040529081600082018054600181600116156101000203166002900480601f01602080910402602001604051908101604052809291908181526020018280546001816001161561010002031660029004801561237d5780601f106123525761010080835404028352916020019161237d565b820191906000526020600020905b81548152906001019060200180831161236057829003601f168201915b505050505081526020016001820160009054906101000a900473ffffffffffffffffffffffffffffffffffffffff1673ffffffffffffffffffffffffffffffffffffffff1673ffffffffffffffffffffffffffffffffffffffff1681525050815260200160048201604080519081016040529081600082018054600181600116156101000203166002900480601f0160208091040260200160405190810160405280929190818152602001828054600181600116156101000203166002900480156124895780601f1061245e57610100808354040283529160200191612489565b820191906000526020600020905b81548152906001019060200180831161246c57829003601f168201915b505050505081526020016001820160009054906101000a900473ffffffffffffffffffffffffffffffffffffffff1673ffffffffffffffffffffffffffffffffffffffff1673ffffffffffffffffffffffffffffffffffffffff168152505081526020016006820154815260200160078201548152602001600882015481525050905061281f565b60028481548110151561252057fe5b906000526020600020906009020160e06040519081016040529081600082018054600181600116156101000203166002900480601f0160208091040260200160405190810160405280929190818152602001828054600181600116156101000203166002900480156125d35780601f106125a8576101008083540402835291602001916125d3565b820191906000526020600020905b8154815290600101906020018083116125b657829003601f168201915b505050505081526020016001820154815260200160028201604080519081016040529081600082018054600181600116156101000203166002900480601f01602080910402602001604051908101604052809291908181526020018280546001816001161561010002031660029004801561268f5780601f106126645761010080835404028352916020019161268f565b820191906000526020600020905b81548152906001019060200180831161267257829003601f168201915b505050505081526020016001820160009054906101000a900473ffffffffffffffffffffffffffffffffffffffff1673ffffffffffffffffffffffffffffffffffffffff1673ffffffffffffffffffffffffffffffffffffffff1681525050815260200160048201604080519081016040529081600082018054600181600116156101000203166002900480601f01602080910402602001604051908101604052809291908181526020018280546001816001161561010002031660029004801561279b5780601f106127705761010080835404028352916020019161279b565b820191906000526020600020905b81548152906001019060200180831161277e57829003601f168201915b505050505081526020016001820160009054906101000a900473ffffffffffffffffffffffffffffffffffffffff1673ffffffffffffffffffffffffffffffffffffffff1673ffffffffffffffffffffffffffffffffffffffff16815250508152602001600682015481526020016007820154815260200160088201548152505090505b4281602001511061283857806040015160200151612842565b8060600151602001515b91505092915050565b6000818301905082811015151561286157600080fd5b92915050565b600080600060036000876040518082805190602001908083835b6020831015156128a65780518252602082019150602081019050602083039250612881565b6001836020036101000a038019825116818451168082178552505050505050905001915050604051809103902060001916600019168152602001908152602001600020541415156128f657600080fd5b6001600260e06040519081016040528088815260200142815260200160408051908101604052808881526020018973ffffffffffffffffffffffffffffffffffffffff16815250815260200160408051908101604052808881526020018973ffffffffffffffffffffffffffffffffffffffff16815250815260200142815260200160008152602001428152509080600181540180825580915050906001820390600052602060002090600902016000909192909190915060008201518160000190805190602001906129ca929190612d83565b506020820151816001015560408201518160020160008201518160000190805190602001906129fa929190612d83565b5060208201518160010160006101000a81548173ffffffffffffffffffffffffffffffffffffffff021916908373ffffffffffffffffffffffffffffffffffffffff16021790555050506060820151816004016000820151816000019080519060200190612a69929190612d83565b5060208201518160010160006101000a81548173ffffffffffffffffffffffffffffffffffffffff021916908373ffffffffffffffffffffffffffffffffffffffff16021790555050506080820151816006015560a0820151816007015560c0820151816008015550500390507f5ef5cc47f48ad159e4f09e881e6c6b4e8c1578230a39e712bf962e7a2ec82be6853360405180806020018373ffffffffffffffffffffffffffffffffffffffff1673ffffffffffffffffffffffffffffffffffffffff168152602001828103825284818151815260200191508051906020019080838360005b83811015612b6b578082015181840152602081019050612b50565b50505050905090810190601f168015612b985780820380516001836020036101000a031916815260200191505b50935050505060405180910390a18060036000876040518082805190602001908083835b602083101515612be15780518252602082019150602081019050602083039250612bbc565b6001836020036101000a0380198251168184511680821785525050505050509050019150506040518091039020600019166000191681526020019081526020016000208190559150509392505050565b610120604051908101604052806060815260200160008152602001612c54612e03565b8152602001612c61612e03565b81526020016000815260200160008152602001600081525090565b828054600181600116156101000203166002900490600052602060002090601f016020900481019282601f10612cb55780548555612cf2565b82800160010185558215612cf257600052602060002091601f016020900482015b82811115612cf1578254825591600101919060010190612cd6565b5b509050612cff9190612e33565b5090565b828054600181600116156101000203166002900490600052602060002090601f016020900481019282601f10612d4457803560ff1916838001178555612d72565b82800160010185558215612d72579182015b82811115612d71578235825591602001919060010190612d56565b5b509050612d7f9190612e33565b5090565b828054600181600116156101000203166002900490600052602060002090601f016020900481019282601f10612dc457805160ff1916838001178555612df2565b82800160010185558215612df2579182015b82811115612df1578251825591602001919060010190612dd6565b5b509050612dff9190612e33565b5090565b604080519081016040528060608152602001600073ffffffffffffffffffffffffffffffffffffffff1681525090565b612e5591905b80821115612e51576000816000905550600101612e39565b5090565b905600a165627a7a72305820e530b09dca476bf348bd20aad67de2ab86657631a45571a6659beab71de94e140029",
  "source": "pragma solidity^0.4.20;\n/*\n    Company: Atra Blockchain Services LLC\n    Website: atra.io\n    Author: Dillon Vincent\n    Title: Address Delegate Service (ADS)\n    Documentation: atra.readthedocs.io\n    Date: 4/4/18\n*/\ninterface IAtraNetworkManager {\n    function Create(string _name, address _currentAddress, string _currentAbiLocation) external returns(uint newNetworkId);\n\n    function ScheduleUpdate(uint _id, string _name, uint _release, address _addr, string _abiUrl) external returns(bool success);\n\n    function Get(uint _id, string _name) public view returns(string name, address addr, string abiUrl, uint released, uint version, uint update, address updateAddr, string updateAbiUrl, uint active, uint created);\n\n    function GetAddress(uint _id, string _name) external view returns(address addr);\n\n    function GetAddressAndAbi(uint _id, string _name) external view returns(address addr, string abiUrl);\n\n    function NetworksLength() external view returns(uint length);\n\n    function NameTaken(string _name) external view returns(bool taken);\n}\n\ncontract AtraOwners {\n    address public owner;\n    address public newOwner;\n\n    event OwnershipTransferred(address from, address to);\n\n    constructor() public {\n        owner = msg.sender;\n    }\n\n    modifier isOwner {\n        require(msg.sender == owner);\n        _;\n    }\n\n    function transferOwnership(address _newOwner) public isOwner {\n        newOwner = _newOwner;\n    }\n    function acceptOwnership() public {\n        require(msg.sender == newOwner);\n        emit OwnershipTransferred(owner, newOwner);\n        owner = newOwner;\n        newOwner = address(0);\n    }\n}\nlibrary SafeMath {\n    function add(uint a, uint b) internal pure returns (uint c) {\n        c = a + b;\n        require(c >= a);\n    }\n}\n\ncontract AtraNetworkManager is IAtraNetworkManager, AtraOwners {\n    using SafeMath for uint;\n\n    struct NetworkData {\n        string abiLocation; // url pointing to the abi json\n        address contractAddress; // address pointing to an ethereum contract\n    }\n\n    struct Network {\n        string name; //this will never change, used as a key\n        uint updateRelease; // the epoch time when the updated contract data is released\n        NetworkData current; // current contract data\n        NetworkData update; // scheduled update contract data\n        uint created; //time created\n        uint version; // auto increment\n        uint released; //when the last release was\n    }\n\n    // Declare Storage\n    Network[] public Networks;\n    mapping(bytes32 => uint) public NetworkNamesToNetworks; // (keccak256('Network Name') => networkId)\n\n    //Events\n    event NetworkCreated(string name, address owner);\n    event UpdateScheduled(string name, address owner);\n\n    //Constructor\n    constructor() public {\n        // Create padding in Networks array to be able to check for unique name in list by returning 0 for no match\n        _Create('',address(this),'');\n    }\n\n    function Get(uint _id, string _name) public view returns(\n            string name,\n            address addr,\n            string abiUrl,\n            uint released,\n            uint version,\n            uint update,\n            address updateAddr,\n            string updateAbiUrl,\n            uint active,\n            uint created\n        ) {\n        Network memory network;\n        if(bytes(_name).length > 0){\n            network = Networks[NetworkNamesToNetworks[keccak256(_name)]];\n        }else{\n            network = Networks[_id];\n        }\n        return (\n            network.name, //name\n            network.current.contractAddress, //addr\n            network.current.abiLocation, //abi\n            // if update is active the released date is when it went live, else it's the release date\n            network.updateRelease < now ? network.updateRelease : network.released, //released\n            //check is next contract is active, if so it's a different version add 1, else return normal version\n            network.updateRelease < now ? network.version.add(1) : network.version, //version\n            // active position  will be used to determine what address to use by the client 0=current 1=next\n            network.updateRelease, //update\n            network.update.contractAddress, //updateAddr\n            network.update.abiLocation, //updateAbi\n            network.updateRelease < now ? 1 : 0, //active\n            network.created //created\n            );\n    }\n\n    function GetAddress(uint _id, string _name) external view returns(address addr) {\n      return _GetAddress(_id,_name);\n    }\n    function _GetAddress(uint _id, string _name) private view returns(address addr) {\n      Network memory network;\n      if(bytes(_name).length > 0){\n          network = Networks[NetworkNamesToNetworks[keccak256(_name)]];\n      }else{\n          network = Networks[_id];\n      }\n      return network.updateRelease < now ? network.update.contractAddress : network.current.contractAddress;\n    }\n\n    function GetAddressAndAbi(uint _id, string _name) external view returns(address addr, string abiUrl) {\n      Network memory network;\n      if(bytes(_name).length > 0){\n          network = Networks[NetworkNamesToNetworks[keccak256(_name)]];\n      }else{\n          network = Networks[_id];\n      }\n      return network.updateRelease < now ? (network.update.contractAddress, network.update.abiLocation) : (network.current.contractAddress, network.current.abiLocation);\n    }\n\n    function NetworksLength() external view returns(uint length){\n        return Networks.length;\n    }\n\n    function NameTaken(string _name) external view returns(bool) {\n        require(bytes(_name).length > 0 && bytes(_name).length <= 100);\n        if(NetworkNamesToNetworks[keccak256(_name)] == 0){\n            return false;//name is not taken\n        }else{\n            return true;\n        }\n    }\n    function Create(string _name, address _addr, string _abiUrl) external isOwner returns(uint id) {\n      // validate inputs\n      require(bytes(_name).length > 0 && bytes(_name).length <= 100 && bytes(_abiUrl).length <= 256);\n      return _Create(_name, _addr, _abiUrl);\n    }\n    function _Create(string _name, address _addr, string _abiUrl) private returns(uint id) {\n        // ** Below is where the padding route object comes into play. ** //\n        // ** A mapping will return 0 if there is a hit and the array index is 0 AND if there is nothing found ** //\n        // ** To pervent this we add padding to the routes list by creating a blank record and requiring _name to have a length > 0 ** //\n        // ** The state below now will only return 0 if there isn't a route found ** //\n        require(NetworkNamesToNetworks[keccak256(_name)] == 0);\n        uint networkId = Networks.push(Network(_name, now, NetworkData(_abiUrl, _addr), NetworkData(_abiUrl, _addr),now, 0, now)) -1;\n        emit NetworkCreated(_name, msg.sender);\n        return NetworkNamesToNetworks[keccak256(_name)] = networkId;\n    }\n\n    function ScheduleUpdate(uint _id, string _name, uint _release, address _addr, string _abiUrl) external isOwner returns(bool success) {\n        //dont require name validation since we aren't storing it\n        require(bytes(_abiUrl).length <= 256);\n        Network storage network;\n        if(bytes(_name).length > 0){\n            network = Networks[NetworkNamesToNetworks[keccak256(_name)]];\n        }else{\n            network = Networks[_id];\n        }\n\n        //if Next Contract Data is active do not overwrite Next data, move it to Current and increment the version\n        if(network.updateRelease < now){\n            network.current = network.update;\n            network.released = network.updateRelease;\n            network.version = network.version.add(1);\n        }\n\n        network.updateRelease = now.add(_release);// if updateRelease is zero update will be live now\n        network.update.contractAddress = _addr; // update next address\n        network.update.abiLocation = _abiUrl; // update next abi location\n        emit UpdateScheduled(network.name, msg.sender);\n        return true; // return success\n    }\n\n}\n",
  "sourcePath": "/Users/dvincent/dapps/atra-sol/contracts/AtraNetworkManager.sol",
  "compiler": {
    "name": "solc",
    "version": "0.4.24+commit.e67f0147.Emscripten.clang"
  },
  "schemaVersion": "2.0.0",
  "updatedAt": "2018-07-08T02:24:48.624Z"
}